S0120000737562745F5445455F532E7372656365
S31500000000084C0020F57A0000A1760000F17A000085
S31500000010F17A0000F17A0000F17A0000F17A00002E
S31500000020000000000000000000000000F17A00005F
S31500000030F17A000000000000F17A0000614900003A
S31500000040B96300002D63000049640000916400005C
S31500000050F16F000081710000B1720000F16F0000C5
S31500000060CD700000F16F000081710000B1720000D8
S31500000070000000000000000000000000000000007A
S31500000080000000000000000000000000000000006A
S31500000090000000000000000000000000000000005A
S315000000A0000000000000000000000000000000004A
S315000000B0000000000000000000000000000000003A
S315000000C0000000000000000000000000000000002A
S315000000D0000000000000000000000000000000001A
S315000000E0000000000000000000000000000000000A
S315000000F000000000000000000000000000000000FA
S3150000010000000000000000000000000000000000E9
S3150000011000000000000000000000000000000000D9
S3150000012000000000000000000000000000000000C9
S3150000013000000000000000000000000000000000B9
S3150000014000000000000000000000000000000000A9
S315000001500000000000000000000000000000000099
S315000001600000000000000000000000000000000089
S315000001700000000000000000000000000000000079
S315000001800000000000000000000000000000000069
S315000001900000000000000000000000000000000059
S315000001A00000000000000000000000000000000049
S315000001B00000000000000000000000000000000039
S315000001C00348044B834202D0034B03B118477047E0
S315000001D0B40E0020B40E002000000000064B0749B4
S315000001E0C91A891048BF0131491003D0044B0BB11D
S315000001F001481847704700BFB40E0020B40E002017
S315000002000000000010B5064C237843B9FFF7D8FF6D
S31500000210044B13B10448AFF300800123237010BDD3
S31500000220D00E002000000000C4BB000008B5054B3E
S315000002301BB105490548AFF30080BDE80840FFF74C
S31500000240CDBF00BF00000000D40E0020C4BB0000DC
S315000002500379022B07D0042B08D18368302B0AD0F0
S31500000260312B04D070470122054B1A7070470122CA
S31500000270044B1A7070470122034B1A70704700BF77
S31500000280EF0E0020EC0E0020ED0E002008B5094907
S31500000290094805F07BFD0022084B0949064805F090
S315000002A063FD00B908BD1421064B074A074807F04D
S315000002B0C3F900BF04B70000CC0F0020F00E0020E9
S315000002C0510200000CAE0000CCAE000020AE0000D3
S315000002D010B50948144605F06DFC38B907490B7886
S315000002E0002BFCD000230B70204610BD4B21044B85
S315000002F0044A054807F0A0F9CC0F0020EF0E0020B5
S315000003000CAE0000C4AE000020AE000070B5094877
S315000003100E46154605F048FC074C2378002BFCD00A
S3150000032000232A4631460348237005F043FC28463D
S3150000033070BD00BFCC0F0020EE0E0020022801D8B1
S315000003400120704708B508F0FFFC092203461A6031
S31500000350002008BD022801D80020704708B508F023
S31500000360F3FC092203461A604FF0FF3008BD00BFB8
S3150000037008B508F0E9FC092203461A604FF0FF3081
S3150000038008BD00BF022808B504D84FF4005300206A
S315000003904B6008BD08F0D8FC09230360002008BDA7
S315000003A02DE9F04F9FB0289BCDE90C120893299BAD
S315000003B010900793DDE92E35AC682F680B940B99E6
S315000003C06A68E86887EA010539461E68D3F8089026
S315000003D05C68DB6886EA090A84EA030C2AEA0608EE
S315000003E085F0F00588EA05080F9025EA070582EAF8
S315000003F000072CEA0400784083F4805327EA0207BA
S315000004005F4023EA0C036FEA080E09926340ED4A47
S31500000410434024EA0004C04389EA0202554022EA26
S315000004200A02724082EA08020A9126EA080685EA6A
S315000004300108099986EA080687EA01080A9984EA02
S31500000440080421EA050888EA0A0885EA08010091F5
S31500000450F10041EA547181EAD411714081EA466B98
S31500000460099921EA070181EA0C014FEAC40C4CEA1A
S31500000470567C8CEA040C640644EAD6148CEA040A18
S315000004804FEAD81444EA416484EA512484EA080411
S3150000049084EAC8554FEA524C940A4CEAC33C44EAF3
S315000004A083549E0A46EA825684EA0C044FEAD11C1B
S315000004B086EA53464CEA486C4F405E408CEA010C93
S315000004C0C90586EAC236544041EA58214FEA5E021F
S315000004D08CEA010C42EAC0728EEA0B0151404FEAE7
S315000004E09E1242EA8062430843EACE73514080EA94
S315000004F00A02534083EA901383EA8E6386EA0C0E5F
S31500000500704684EA05020195754620EA060981F0DF
S31500000510E10122EA040888EA010821EA0B0E89EAC9
S31500000520030123EA0A030393009B0292FA0C42EAB0
S31500000530433282EA17727A40CDF810E0D80C82EA8C
S315000005400312039B6FEA080982EA0C026FEA010EA6
S31500000550534022EA050272404A4026EA0106009903
S3150000056040EA47304FEA117C4CEA071C039580EAC3
S315000005700C00019D4840029F6840049D85EA0001E9
S3150000058020EA07008BEA0105604024EA08046C4073
S315000005902BEA01057D408AEA03077E40039F80EA35
S315000005A008002AEA030888EA0708E70047EA5677B8
S315000005B087EAD617674087EA446BF70047EA54771D
S315000005C07740760646EAD416EC0944EA486484EA9B
S315000005D058246C4087EA060A84EAC556970A0096AC
S315000005E047EA8057860A440C44EAC23446EA8256F1
S315000005F087EA52475740664087EAC03746404FEA87
S31500000600590040EACE7089EA0B044FEAD81C4CEA3E
S31500000610456C44404FEA991083EA080340EA8E602D
S315000006208CEA080C4FEA5E024FEAC85848EA552899
S3150000063042EAC97244408EEA0A008CEA080C42403B
S3150000064082EA9E1287EA0C0E70466940029082EAA0
S31500000650896220EA0709D80C40EA4130009D80EA09
S3150000066013705840754080EA0110019525EA060886
S3150000067080EA0C0084F0D204CD0C4FEA117C88EAA3
S31500000680040E4CEA031C24EA0B0445EA43350494A1
S31500000690009B029C85EA0C0589EA02094D4022EA84
S315000006A00A0242405D4020EA0400019B049CCDF80A
S315000006B00CE06C4025EA0303039D73406B408BEA14
S315000006C0040126EA0506019D4E402BEA0401694015
S315000006D078408AEA020527EA09076F404FEAC60C06
S315000006E04CEA577C8CEAD71C8CEA060C8CEA466BE3
S315000006F04C404FEAC70C00944CEA567C029C2AEA0E
S3150000070002058CEA070C7F06654047EAD617CE0934
S3150000071046EA456686EA55264E406FEA0E0880EAA6
S3150000072009008CEA070A86EAC1544FEA534C9E0A2E
S315000007306FEA090E4CEAC03C46EA805686EA0C0689
S315000007404FEAD51C4CEA416C6A408CEA050CED0573
S315000007505E4045EA51258CEA050C86EA04050494B8
S315000007602C46870A47EA835787EA50474FEA5801DB
S3150000077041EACE71474088EA0B0048404FEA98119B
S3150000078087EAC33741EA8E614FEA5E0343EAC873DC
S3150000079048408EEA0A014B4083EA9E1383EA886347
S315000007A0029424EA0608009C87EA0C0580F0C30040
S315000007B0D10C88EA000E25EA070941EA44316FEABE
S315000007C00E0801E001008C8089EA030981EA1271B2
S315000007D00395CDF814E051406FEA090EE50C81EA65
S315000007E00411039C81EA0C0123EA0A034B4021EA27
S315000007F00401009C45EA42354FEA147C4CEA021C8F
S3150000080085EA0C05049A6540029C554025EA0402D7
S3150000081020EA0B000193059B68407240029D5A40F6
S315000008208BEA000426EA0306019B66402BEA0004D5
S315000008306C4079408AEA030527EA09076F404FEAC8
S31500000840C60C4CEA577C8CEAD71C8CEA060C8CEA60
S31500000850466B4FEAC70C2AEA03054CEA567C039B13
S315000008608CEA070C7F065D4047EAD617E60946EA9A
S31500000870456686EA5526664086EAC45681EA090137
S315000008808CEA070A00964FEA524C960A4CEAC13C9B
S3150000089046EA81568F0A019B47EA825786EA0C068A
S315000008A04FEAD51C87EA51474CEA446C6B404F40EF
S315000008B08CEA050C4FEA5801ED05604045EA5425DF
S315000008C041EACE7188EA0B044C404FEA981187EA58
S315000008D0C237564041EA8E614FEA5E0242EAC8726A
S315000008E04C408EEA0A018CEA050C4A4082EA9E12C6
S315000008F087EA0C0E7146029121EA0709D90C41EAF2
S315000009004031009D81EA13715940754081EA00111A
S31500000910019582EA886281EA0C0125EA06084FEA17
S31500000920107CC50C4CEA031C84F0B40445EA43353C
S3150000093088EA040E009B24EA0B0485EA0C0504945D
S315000009404540029C89EA02095D4022EA0A02019BAF
S31500000950CDF80CE04A4021EA0401049C039825EAFC
S3150000096003036C4073404340019D26EA00068BEA70
S31500000970040046402BEA0400684079408AEA0205F2
S3150000098027EA09076F404FEAC60C4CEA577C8CEA07
S31500000990D71C8CEA060C8CEA466B44404FEAC70C1F
S315000009A000944CEA567C029C2AEA02058CEA070C63
S315000009B07F06654047EAD617C60946EA456686EACF
S315000009C0552646406FEA0E0881EA09018CEA070AB5
S315000009D086EAC0544FEA534C9E0A6FEA090E4CEA67
S315000009E0C13C46EA815686EA0C064FEAD51C4CEA1B
S315000009F0406C6A408CEA050CED055E4045EA5025E0
S31500000A008CEA050C86EA040504942C468F0A47EA0C
S31500000A10835787EA51474F404FEA580141EACE7162
S31500000A2088EA0B0048404FEA981187EAC33741EA43
S31500000A308E614FEA5E0343EAC87348408EEA0A01B4
S31500000A404B4083EA9E13029483EA886324EA0608ED
S31500000A50009C87EA0C0580F0A500D10C88EA000E00
S31500000A6025EA070941EA44316FEA0E0889EA0309D3
S31500000A7081EA12710395CDF814E051406FEA090E30
S31500000A80E50C81EA0411039C81EA0C0123EA0A03BE
S31500000A904B4021EA0401009C45EA42354FEA147CAA
S31500000AA04CEA021C85EA0C05049A6540029C5540F6
S31500000AB0019325EA0402059B20EA0B006840724078
S31500000AC05A408BEA0004029D26EA0306019B664013
S31500000AD02BEA00046C4079408AEA030527EA0907F5
S31500000AE06F404FEAC60C4CEA577C8CEAD71C8CEA5E
S31500000AF0060C8CEA466B4FEAC70C2AEA03054CEA59
S31500000B00567C039B8CEA070C7F065D4047EAD617A6
S31500000B10E60946EA456686EA5526664086EAC456EA
S31500000B20019B81EA090100968CEA070A960A4FEAB8
S31500000B30524C4CEAC13C46EA81568F0A47EA825734
S31500000B4086EA0C064FEAD51C87EA51474CEA446C04
S31500000B506B404F408CEA050C4FEA5801ED056040AA
S31500000B6045EA542541EACE7188EA0B044C404FEA27
S31500000B70981187EAC237564041EA8E614FEA5E0213
S31500000B8042EAC8724C408EEA0A018CEA050C4A40D9
S31500000B9082EA9E1287EA0C0E7146029121EA070943
S31500000BA0D90C41EA4031009D81EA137159407540E4
S31500000BB081EA0011019582EA886281EA0C0125EA40
S31500000BC006084FEA107CC50C4CEA031C84F0960418
S31500000BD045EA433588EA040E009B24EA0B0485EABD
S31500000BE00C0504944540029C89EA02095D4022EA0C
S31500000BF00A02019BCDF80CE04A4021EA0401049C5C
S31500000C00039825EA03036C4073404340019D26EA9E
S31500000C1000068BEA040046402BEA0400684079404F
S31500000C208AEA020527EA09076F404FEAC60C4CEA32
S31500000C30577C8CEAD71C8CEA060C8CEA466B44403F
S31500000C404FEAC70C00944CEA567C029C2AEA02053D
S31500000C508CEA070C7F06654047EAD617C60946EABE
S31500000C60456686EA552646406FEA0E0881EA09017E
S31500000C708CEA070A86EAC0544FEA534C9E0A6FEA8A
S31500000C80090E4CEAC13C46EA815686EA0C064FEA52
S31500000C90D51C4CEA406C6A408CEA050CED055E40BA
S31500000CA045EA50258CEA050C86EA040504942C4690
S31500000CB08F0A47EA835787EA51474F404FEA580160
S31500000CC041EACE7188EA0B0048404FEA981187EA5C
S31500000CD0C33741EA8E614FEA5E0343EAC873484070
S31500000CE08EEA0A014B4083EA9E13029483EA8863E4
S31500000CF024EA0608009C87EA0C0580F08700D10CE0
S31500000D0088EA000E25EA070941EA44316FEA0E082F
S31500000D1089EA030981EA12710395CDF814E051407E
S31500000D206FEA090EE50C81EA0411039C81EA0C01C5
S31500000D3023EA0A034B4021EA0401009C45EA4235B6
S31500000D404FEA147C4CEA021C85EA0C05049A6540BD
S31500000D50029C5540019325EA0402059B20EA0B00FC
S31500000D60684072405A408BEA0004029D26EA030658
S31500000D70019B66402BEA00046C4079408AEA030531
S31500000D8027EA09076F404FEAC60C4CEA577C8CEA03
S31500000D90D71C8CEA060C8CEA466B4FEAC70C2AEA8B
S31500000DA003054CEA567C039B8CEA070C7F065D40E4
S31500000DB047EAD617E60946EA456686EA55266640B4
S31500000DC086EAC45681EA09018CEA070A00964FEAC8
S31500000DD0524C960A4CEAC13C46EA81568F0A019B60
S31500000DE047EA825786EA0C064FEAD51C87EA51473E
S31500000DF04CEA446C6B404F408CEA050C4FEA5801B4
S31500000E00ED05604045EA542541EACE7188EA0B04B7
S31500000E104C404FEA981187EAC237564041EA8E6144
S31500000E204FEA5E0242EAC8724C408EEA0A018CEA38
S31500000E30050C4A4082EA9E1287EA0C0E7146009D16
S31500000E4021EA0709754001950291D90C41EA403122
S31500000E5081EA1371594081EA001182EA886281EAC7
S31500000E600C0125EA06084FEA107CC50C4CEA031C67
S31500000E7084F0780445EA433588EA040E009B24EAA8
S31500000E800B0485EA0C0504944540029C89EA020994
S31500000E905D4022EA0A02019BCDF80CE04A4021EAB5
S31500000EA00401049C039825EA03036C407340434005
S31500000EB0019D26EA00068BEA040046402BEA040060
S31500000EC0684079408AEA020527EA09076F404FEA37
S31500000ED0C60C4CEA577C8CEAD71C8CEA060C8CEACA
S31500000EE0466B44404FEAC70C00944CEA567C029C81
S31500000EF02AEA02058CEA070C7F06654047EAD61700
S31500000F00C60946EA456686EA552646406FEA0E0851
S31500000F1081EA09018CEA070A86EAC0544FEA534C73
S31500000F209E0A6FEA090E4CEAC13C46EA815686EAF9
S31500000F300C064FEAD51C4CEA406C6A408CEA050C5C
S31500000F40ED055E4045EA50258CEA050C86EA040567
S31500000F5004942C468F0A47EA835787EA51474F4045
S31500000F604FEA580141EACE7188EA0B0048404FEA41
S31500000F70981187EAC33741EA8E614FEA5E0343EA76
S31500000F80C87348408EEA0A014B4083EA9E130294D6
S31500000F9083EA886324EA0608009CD10C87EA0C05DC
S31500000FA080F0690041EA443188EA000E25EA070923
S31500000FB081EA12716FEA0E08039589EA0309514026
S31500000FC0CDF814E0E50C6FEA090E81EA0411039CE2
S31500000FD081EA0C0123EA0A034B4021EA0401009C42
S31500000FE045EA42354FEA147C4CEA021C85EA0C05B8
S31500000FF0049A6540029C5540019325EA0402059B2C
S3150000100020EA0B00684072405A40029D8BEA0004B9
S3150000101026EA0306019B66402BEA00046C407940F1
S315000010208AEA030527EA09076F404FEAC60C4CEA2D
S31500001030577C8CEAD71C8CEA060C8CEA466B4FEA86
S31500001040C70C2AEA03054CEA567C039B8CEA070C7C
S315000010507F065D4047EAD617E60946EA456686EA10
S315000010605526664086EAC45681EA09018CEA070AD3
S31500001070019B4FEA524C0196960A4CEAC13C46EA5D
S3150000108081568F0A47EA825786EA0C064FEAD51C34
S3150000109087EA51474CEA446C6B404F408CEA050C9A
S315000010A0ED0587EAC237564045EA54254FEA58020D
S315000010B08CEA050C42EACE7288EA0B0555404FEAE7
S315000010C0981242EA8E624FEA5E01604041EAC871B8
S315000010D0019C55408EEA0A025140744081EA9E11F5
S315000010E081EA886185F05A0524EA060888EA050837
S315000010F06FEA080E87EA0C0225EA0B0504951546E9
S3150000110022EA070989EA0109CDF800E06FEA090E2B
S31500001110DA0C42EA403282EA13725A4082EA00123C
S3150000112082EA0C0202944FEA107CC40C4CEA031CBF
S3150000113044EA433421EA0A01039584EA0C04019B3C
S315000011405140444022EA05020298049D5C406540F5
S3150000115024EA00048BEA0503744026EA08065E408A
S315000011607A408AEA010327EA09077B402BEA050C45
S315000011708CEA000C84EA0804D8004FEAC60848EA5C
S31500001180537840EA5670039F584088EAD3185B06A6
S3150000119082EA090243EAD6132AEA010989EA07091B
S315000011A080EA030B4FEADC1343EA4963009883EABB
S315000011B0592381EA090183EA0C0388EA060885EACD
S315000011C00C0588EA4668470883EACC56C80C01969F
S315000011D040EA4530EE0C4FEA157A4AEA011A46EA29
S315000011E0413680EA1170484086EA0A06009980EA8C
S315000011F005106E40019D4FEA5E0A6E4047EACE77C3
S3150000120081EA08054AEAC17A890941EA8E617D4088
S315000012104D404FEAD9178EEA0B0147EA4C678AEA36
S31500001220010A0099930A87EA09078AEA9E1A4FEA91
S31500001230C9598AEA816A49EA5C2943EA8453A10AC0
S315000012404FEA544C4CEAC23C83EA524341EA82518B
S31500001250534081EA0C0183EAC4336140019C87EA6A
S31500001260090781EA040C78402AEA0B045F404440EF
S3150000127085F04B0527EA030920EA070089EA0A09EF
S3150000128025EA080E58408EEA060E26EA0C0280EA87
S315000012900906009628EA0E0686EA0C062CEA010CD8
S315000012A08CEA050C4A4023EA09036FEA090982EA37
S315000012B00C0221EA0C016FEA0C0C2BEA040585EA04
S315000012C0070088EA0E088EEA060E81EA08018BEA14
S315000012D0040B4FEADE4744404FEA1E7848EA0418FA
S315000012E047EA443787EA080787EA0E0783EA0B03CB
S315000012F00397BB46E70C47EA4E3787EA1477674001
S3150000130087EA0E1401941594CC0044EA537484EAD7
S31500001310D3144C4084EA416A4FEA590444EACC7437
S3150000132084EA991484EA090484EA8C640294199480
S31500001330DC0044EA51745C405B0643EAD11384EA5C
S31500001340030E4FEA5C044FEA9C13009D43EA89634F
S3150000135044EAC9740B995C40099B4FEA9528F70942
S315000013606B40714048EA825847EA406788EA0308BA
S315000013704F4087EA50270A9984EA0C0488EA5548C0
S315000013804FEA922C4CEA855C88EAC23587EAC65851
S31500001390009F5140520C42EAC7328CEA010151408B
S315000013A00F9AC30943EA466342405A40C30543EADB
S315000013B056235A40CDF858A0CDF850B0CDF85CE091
S315000013C018941B95CDF81480CDF870801A911D9253
S315000013D0DDE92C6356EA03002A9F01F0F382102E02
S315000013E073F10000C3F09280CDE90363BB19CDF819
S315000013F018B00E93DDF808B0009502921196039B83
S315000014000E9AD51A049A103B62F100000490E8681F
S31500001410029A80EA0E0E0098D5F8089082EA000833
S31500001420059A89EA0A098BEA0E0682EA010A0393FB
S3150000143028EA000084EA090370402AEA010B83F0D7
S31500001440B4036FEA000C8BEA030B6FEA0B072C68F8
S315000014506D685440069A26EA0E065440029A23EA1C
S3150000146009035540019A634055406E4025EA080538
S315000014700195009D21EA0B0224EA0A0481EA0B0B7E
S3150000148084EA0B0182EA090429EA030225EA000933
S3150000149089EA0E096840019D5C4089EA06092EEA40
S315000014A0060E68408EEA080EE5004FEAC90848EACB
S315000014B0547845EA597588EA090885EAD9154FEA44
S315000014C0496982EA0A0249EAD419654088EA0908A4
S315000014D085EA4469D40944EA4E6484EA5E244FEA04
S315000014E0DE1B54404BEA426B86EA0E0684EAC2547F
S315000014F08BEA0E0B4FEACE5E534000944EEA522E14
S31500001500850A8C0A4A0C42EAC03245EA815544EA09
S31500001510805485EA504554404FEA5C02454042EA11
S31500001520C7728CEA0800424085EAC1354C4082EA1F
S315000015309C12790841EACC7182EA876287EA09003F
S31500001540BF0947EA8C6748407840009F8BEA0E0B3C
S31500001550674027EA040E80F0A5008EEA000E029787
S315000015606FEA0E0785EA0B0121EA050A8AEA020AF2
S315000015706FEA0A0C0191F10C41EA433181EA1671D6
S315000015807140059781EA0311019F81EA0B0122EA66
S3150000159008024A4021EA0701694081EA0A0125EA70
S315000015A00A054FEA137B4FEAD34A4BEA061B4AEA7F
S315000015B0463A8AEA0B0A009E029F8AEA030A8AEAE8
S315000015C0060A20EA090080EA0A002AEA070389EAED
S315000015D00006634024EA0E04744029EA000686EAFF
S315000015E0070988EA020683EA0E036E404FEAC40E34
S315000015F028EA02054EEA567E4FEAC608019F48EAE7
S3150000160054788EEAD61E88EA06088EEA040E760616
S315000016107D4046EAD4168EEA446400944FEAD51E0D
S315000016204FEAD91444EA45644EEA496E6A4084EAB0
S3150000163055248EEA050EED0588EA060A84EA0904B1
S3150000164045EA59258E0A84EAC9578EEA050E46EA06
S3150000165083569D0A5C0C44EAC13486EA514645EA43
S31500001660815501974E40059F654086EAC3365D4029
S315000016704FEA5C038CEA0A0443EAC7736340009CA2
S31500001680790883EA9C1341EACC7183EA87637C403C
S31500001690BF0947EA8C674C407C40019F84F0960462
S315000016A06F400297009927EA050880EA090088EA50
S315000016B0040824EA0104D10C41EA403181EA12719E
S315000016C086EA0E09514029EA060B81EA00118BEAE7
S315000016D0030B81EA0E0123EA0A034B4021EA0901C2
S315000016E071406FEA0B0C81EA0B0126EA0B064FEA02
S315000016F0D04E4FEA107B4BEA021B4EEA423E05965D
S315000017008EEA0B0E019E8EEA000E8EEA060E009EF3
S315000017106FEA08073046029A84EA0E042EEA0202AD
S3150000172060406A4025EA0805454026EA0400029E14
S315000017308AEA030E7040059E82EA080286EA0E06D1
S315000017402AEA03084FEAC50E88EA09084EEA567ED9
S315000017504FEAC60949EA55798EEAD61E8EEA050E83
S3150000176089EA060976068EEA456A46EAD516C50965
S3150000177045EA486585EA58254FEAD81E45404EEAAF
S31500001780406E83EA080389EA060985EAC0558E0A8F
S315000017908EEA080E4FEAC8580095444048EA502899
S315000017A046EA8256950A500C40EAC13086EA51460E
S315000017B045EA81554E40454086EAC23655404FEAD5
S315000017C05C028CEA090042EAC7724240790882EA62
S315000017D09C1241EACC7182EA876287EA0A00BF0955
S315000017E047EA8C6748407840009F8EEA080E6F40B3
S315000017F027EA050880F0870088EA000802976FEA62
S31500001800080786EA0E0121EA060B8BEA020B6FEA4D
S315000018100B0C0191D90C41EA443181EA137159400C
S31500001820059781EA0411019F81EA0E0122EA090265
S315000018304A4021EA0701714081EA0B0126EA0B06BC
S315000018404FEAD44E4FEA147B4BEA031B4EEA433E63
S315000018508EEA0B0E8EEA040E009C029F8EEA040EA0
S3150000186020EA0A0080EA0E002EEA07038AEA00044C
S315000018706B4025EA0805654089EA020E86EA0E06EF
S315000018804FEAC50E83EA08032AEA000429EA020899
S315000018904EEA567E4FEAC6097C4049EA5579019FD1
S315000018A08EEAD61E8EEA050E89EA0609760688EACB
S315000018B007088EEA456A46EAD516E50945EA486507
S315000018C085EA58254FEAD81E65404EEA446E82EAFC
S315000018D0080289EA060985EAC4558E0A8EEA080EC8
S315000018E04FEAC8586040009548EA542846EA8356AD
S315000018F09D0A5C0C44EAC13486EA514645EA8155A4
S31500001900059F4E40654086EAC3365D404FEA5C035C
S315000019108CEA090443EAC7736340790883EA9C1397
S3150000192041EACC7183EA876387EA0A04BF0947EA7A
S315000019308C674C407C40009F8EEA080E6F4027EA79
S31500001940050884F0780488EA040802976FEA080715
S3150000195086EA0E0121EA060B8BEA030B6FEA0B0CF3
S315000019600191D10C41EA403181EA1271514005974B
S3150000197081EA0011019F81EA0E0123EA09034B4027
S3150000198021EA0701714081EA0B0126EA0B064FEABC
S31500001990D04E4FEA107B4BEA021B4EEA423E8EEADD
S315000019A00B0E009A029F8EEA000E8EEA020E24EAC1
S315000019B00A0484EA0E042EEA07028AEA04006A4050
S315000019C025EA0805454089EA030E86EA0E064FEA2F
S315000019D0C50E82EA08022AEA040029EA03084EEA4A
S315000019E0567E4FEAC609784049EA5579019F8EEA44
S315000019F0D61E8EEA050E89EA0609760688EA0708E3
S31500001A008EEA456A46EAD516C50945EA486585EA75
S31500001A1058254FEAD81E45404EEA406E83EA080331
S31500001A2089EA060985EAC0558E0A8EEA080E4FEA4B
S31500001A30C8584440009548EA502846EA8256950A16
S31500001A40500C40EAC13086EA514645EA8155059F69
S31500001A504E40454086EAC23655404FEA5C028CEA63
S31500001A60090042EAC7724240790882EA9C1241EABA
S31500001A70CC7182EA876287EA0A00BF0947EA8C6767
S31500001A8048407840009F8EEA080E6F4027EA050816
S31500001A9080F0690088EA000802976FEA080786EA7C
S31500001AA00E0121EA060B8BEA020B6FEA0B0C019181
S31500001AB0D90C41EA443181EA1371594081EA041193
S31500001AC00597019F81EA0E0122EA09024A4021EAAE
S31500001AD00701714081EA0B0126EA0B064FEAD44E54
S31500001AE04FEA147B4BEA031B4EEA433E8EEA0B0E8B
S31500001AF08EEA040E009C029F8EEA040E20EA0A007B
S31500001B0080EA0E002EEA07038AEA00046B4025EA03
S31500001B100805654089EA020E86EA0E064FEAC50EFA
S31500001B2083EA08032AEA000429EA02084EEA567EF6
S31500001B304FEAC6097C4049EA5579019F8EEAD61ECE
S31500001B408EEA050E89EA0609760688EA07088EEA0D
S31500001B50456A46EAD516E50945EA486585EA5825FF
S31500001B604FEAD81E65404EEA446E82EA080289EAC8
S31500001B70060985EAC4558E0A8EEA080E4FEAC85849
S31500001B806040009548EA542846EA83569D0A5C0C54
S31500001B9044EAC13486EA514645EA8155059F4E40DE
S31500001BA0654086EAC3365D404FEA5C038CEA090469
S31500001BB043EAC7736340790883EA9C1341EACC7110
S31500001BC083EA876387EA0A04BF0947EA8C674C40C1
S31500001BD07C40009F8EEA080E6F4027EA050884F0D5
S31500001BE05A0488EA040802976FEA080786EA0E0193
S31500001BF021EA060B8BEA030B6FEA0B0C0191D10C61
S31500001C0041EA403181EA12715140059781EA00119B
S31500001C10019F81EA0E0123EA09034B4021EA0701ED
S31500001C20714081EA0B0126EA0B064FEAD04E4FEAD5
S31500001C30107B4BEA021B4EEA423E8EEA0B0E009ADE
S31500001C40029F8EEA000E8EEA020E24EA0A0484EA55
S31500001C500E042EEA07028AEA04006A4025EA08050D
S31500001C60454089EA030070404FEAC50E82EA080241
S31500001C7029EA03062AEA04084FEAC0094EEA507E1A
S31500001C8088EA070849EA5579019F8EEAD01E8EEA4E
S31500001C90050E89EA000940067E408EEA456A40EA5A
S31500001CA0D5104FEAD81545EA46654FEAD61E85EAAD
S31500001CB056254EEA486E734089EA000985EA08050A
S31500001CC0880A8EEA060EF60585EAC85546EA5826BB
S31500001CD040EA8250059F00958EEA060E80EA514042
S31500001CE0960A550C45EAC135484046EA81564FEA00
S31500001CF05C016E4041EAC7718CEA0905694080EAD9
S31500001D00C230564081EA9C117A0842EACC7281EAD6
S31500001D10876187EA0A05BF0947EA8C6755407D4017
S31500001D20009F84EA0804774027EA060885F04B05F9
S31500001D3088EA050801976FEA080780EA0E0222EA98
S31500001D40000B8BEA010B6FEA0B0C0292DA0C42EAEB
S31500001D50443282EA13725A40059782EA0412029FBD
S31500001D6082EA0E0221EA0901514022EA07024240B4
S31500001D7082EA0B0220EA0B0EE00C4FEA147B4BEAD8
S31500001D80031B40EA433080EA0B006040009C25EAD2
S31500001D900A056040019C454020EA0400704080EA44
S31500001DA0080026EA080629EA010888EA0708019FCA
S31500001DB02AEA050489EA010384EA070981EA080197
S31500001DC08AEA0504744085EA0905CE0C46EA4536DA
S31500001DD086EA11764E4086EA05168EEA03030196D8
S31500001DE0E60046EA537686EAD316059F664086EAFB
S31500001DF0446A4FEA5C0646EAC77686EA9C1686EA95
S31500001E000C0686EA876B960A46EA805686EA5246AA
S31500001E10564086EAC03600964FEAD91646EA486624
S31500001E2086EA582686EA090686EAC95605964FEADC
S31500001E30157EEE0C4EEA011E46EA413686EA0E068D
S31500001E404FEAC30E4EEA547E8EEA030E5B0643EA61
S31500001E50D4138EEA030E7C08BB0986EA050143EA21
S31500001E608C6344EACC745C400691430C810A43EAD5
S31500001E70C23341EA82514FEAD812594042EA4962D6
S31500001E80039B82EA080241404FEAC858049848EA90
S31500001E905928102B82EA080270F1000384EA07042D
S31500001EA00292BFF4ACAA5B46CDE91843059B119E8E
S31500001EB0CDE91C32019B009DCDE9153AB6F1100320
S31500001EC02A9FDDF818B023F00F031033CDE91A1559
S31500001ED031071F44CDF850B04FF00003CDF85CE059
S31500001EE006F00F0202F1178314AD0126D100A1F10D
S31500001EF02000C1F1200406FA00F026FA04F48E4010
S31500001F000199044386EA0B064C401343C5E9006475
S31500001F1042F02883DDE91A1ADDE916031D9E1C9A94
S31500001F20189C199D86EA0A0882EA01095D4028EA9A
S31500001F300A0E44408EEA050E29EA010684F0B4042E
S31500001F406FEA0E0C6640F74325EA030B149D24EA5C
S31500001F5000046A40544022EA090272404A401D9D2C
S31500001F6021EA0606159969408BEA010521EA08016E
S31500001F7081EA0E0181EA0A012AEA0E0E80EA040AC3
S31500001F8020EA040080EA090083EA050986EA0A06CF
S31500001F908EEA090E23EA050383EA08034FEACE090F
S31500001FA04FEAC60849EA567948EA5E7889EA0E0990
S31500001FB088EADE184FEA4E6E4EEAD61E88EA060812
S31500001FC089EA0E0988EA46684FEAD01E8E0A4FEA69
S31500001FD0D31B46EA82564EEA436E4BEA406B5D409F
S31500001FE086EA51468EEA532E8BEA030BDB05444004
S31500001FF04E408EEA000E43EA502300948BEA030B10
S3150000200086EAC234530C8EEAC056900A43EAC133BC
S3150000201040EA815058404FEA5C038CEA090143EAE2
S31500002020C7734B40504083EA9C137A0842EACC724D
S3150000203083EA876387EA0801BF0947EA8C6751404C
S31500002040794080EA060727EA000E81F0A50184EAB6
S315000020500B028EEA010E019622EA040A16466FEA80
S315000020600E028AEA030A23EA09036FEA0A0C0293BC
S31500002070009B0392EA0C42EA433282EA15726A40F6
S3150000208082EA0312029B82EA0B02534022EA06020C
S315000020900296624024EA0A06009C82EA0A024FEA95
S315000020A0147B4FEAD44A4BEA051B4AEA453A8AEAC8
S315000020B00B0A019D8AEA040A8AEA050A21EA08014E
S315000020C081EA0A012AEA070488EA0105444020EA6F
S315000020D00E00684028EA01057D40694084EA0E0446
S315000020E0019189EA030E029986EA0E0629EA030E91
S315000020F08EEA01084FEAC00E4FEAC6094EEA567E3E
S3150000210049EA50798EEAD61E8EEA000E89EA060959
S3150000211076068EEA406A46EAD016E80940EA486042
S315000021204FEAD81E80EA58204EEA456E83EA080335
S3150000213089EA06096840960A8EEA080E4FEAC858E8
S3150000214080EAC55148EA552846EA8456A50A600C35
S31500002150039F40EAC23086EA524645EA8255564017
S3150000216045404FEA5C0286EAC436654042EAC772D9
S315000021708CEA090478086240009140EACC7087EA4C
S315000021800A0482EA9C128EEA080E82EA87624440BA
S31500002190BF09009886EA0E0147EA8C67684021EA83
S315000021A0060B7C408BEA020B84F0960420EA0508B5
S315000021B06FEA0B0C88EA04086FEA0807029024EA23
S315000021C00A00019C0390D80C40EA443080EA137060
S315000021D0584080EA041080EA0E0022EA09024240D2
S315000021E020EA0100704080EA0B0026EA0B064FEA5F
S315000021F0D44E4FEA147B4BEA031B4EEA433E049649
S315000022008EEA0B0E009E8EEA040E8EEA060E039BE5
S315000022100191029E83EA0E042EEA06038AEA04016D
S315000022206B4025EA08054D402AEA04017140049EE8
S3150000223089EA020E86EA0E064FEAC50E83EA08030D
S315000022404C4029EA02084EEA567E4FEAC609029435
S3150000225049EA5579019C8EEAD61E8EEA050E89EA70
S315000022600609760688EA04088EEA456A46EAD5161D
S31500002270CD0945EA48654FEAD81E85EA58254EEA53
S31500002280416E82EA080289EA06094D40860A8EEA0C
S31500002290080E4FEAC85885EAC15448EA512846EA6A
S315000022A083569D0A590C41EAC03186EA504645EAF2
S315000022B0805546404D4086EAC3365D404FEA5C0392
S315000022C08CEA090043EAC77379084340009441EA5F
S315000022D0CC7187EA0A0083EA9C138EEA080E83EA29
S315000022E087634840BF09009986EA0E0447EA8C676F
S315000022F0694024EA060B78408BEA030B80F08700DE
S3150000230021EA05086FEA0B0C88EA000801916FEADA
S31500002310080720EA0A0102980391D10C41EA4031EC
S3150000232081EA1271514081EA001181EA0E0123EA25
S3150000233009034B4021EA0401714081EA0B0126EAB8
S315000023400B064FEAD04E4FEA107B4BEA021B4EEAD1
S31500002350423E04968EEA0B0E009E8EEA000E039A0B
S315000023608EEA060E019E82EA0E002EEA060202940C
S315000023706A408AEA000425EA080565402AEA00045C
S315000023807440049E89EA030E86EA0E064FEAC50EDD
S3150000239082EA0802604029EA03084EEA567E4FEABE
S315000023A0C609019049EA557902988EEAD61E8EEA48
S315000023B0050E89EA0609760688EA00088EEA456A65
S315000023C046EAD516E50945EA48654FEAD81E85EA84
S315000023D058254EEA446E83EA080389EA06096540F1
S315000023E08E0A8EEA080E4FEAC85885EAC45048EAB3
S315000023F0542846EA8256950A540C44EAC13486EAC1
S31500002400514645EA81554E40654086EAC2365540FA
S315000024104FEA5C028CEA090442EAC7727908624014
S31500002420009041EACC7187EA0A0482EA9C128EEA9D
S31500002430080E82EA87624C40BF09009986EA0E00C0
S3150000244047EA8C67694020EA060B7C408BEA020B60
S3150000245084F0780421EA05086FEA0B0C88EA040880
S315000024606FEA0807029124EA0A01019C0391D90C3C
S3150000247041EA443181EA1371594081EA041181EA43
S315000024800E0122EA09024A4021EA0001714081EA6E
S315000024900B0126EA0B064FEAD44E4FEA147B4BEAB1
S315000024A0031B4EEA433E04968EEA0B0E009E8EEA0E
S315000024B0040E8EEA060E039B029E83EA0E042EEAA3
S315000024C0060301906B408AEA040025EA08054540A8
S315000024D02AEA04007040049E89EA020E86EA0E0685
S315000024E04FEAC50E83EA0803444029EA02084EEA89
S315000024F0567E4FEAC609029449EA5579019C8EEA4E
S31500002500D61E8EEA050E89EA0609760688EA0408CA
S315000025108EEA456A46EAD516C50945EA48654FEA90
S31500002520D81E85EA58254EEA406E82EA080289EAF4
S31500002530060945408E0A8EEA080E4FEAC85885EA13
S31500002540C05448EA502846EA83569D0A580C40EA89
S31500002550C13086EA514645EA81554E40454086EAF5
S31500002560C3365D404FEA5C038CEA090043EAC77351
S3150000257079084340009441EACC7187EA0A0083EA6D
S315000025809C138EEA080E83EA87634840BF090099C8
S3150000259086EA0E0447EA8C67694024EA060B78400F
S315000025A08BEA030B80F0690021EA05086FEA0B0C41
S315000025B088EA000801916FEA080720EA0A010298F2
S315000025C00391D10C41EA403181EA1271514081EA0E
S315000025D0001181EA0E0123EA09034B4021EA0401B6
S315000025E0714081EA0B0126EA0B064FEAD04E4FEA0C
S315000025F0107B4BEA021B4EEA423E04968EEA0B0E15
S31500002600009E8EEA000E039A8EEA060E019E82EA6C
S315000026100E002EEA060202946A408AEA000425EABF
S31500002620080565402AEA00047440049E89EA030E00
S3150000263086EA0E064FEAC50E82EA0802604029EADB
S3150000264003084EEA567E4FEAC609039049EA5579D1
S3150000265002988EEAD61E8EEA050E89EA06097606E5
S3150000266088EA00088EEA456A46EAD516E50945EA8B
S3150000267048654FEAD81E85EA58254EEA446E83EA35
S31500002680080389EA060965408E0A8EEA080E4FEAB3
S31500002690C85885EAC45048EA542846EA8256950A3C
S315000026A0540C44EAC13486EA514645EA81554E4007
S315000026B0654086EAC23655404FEA5C028CEA090458
S315000026C042EAC77279086240009041EACC7187EA13
S315000026D00A0482EA9C1282EA87624C40BF0900998A
S315000026E047EA8C6769407C408EEA080E84F05A04FB
S315000026F021EA0508019188EA040824EA0A01039CF4
S315000027000291D90C41EA443181EA137186EA0E003E
S31500002710594020EA060B81EA04118BEA020B81EA92
S315000027200E0122EA09024A4021EA000171406FEADD
S315000027300B0C81EA0B0126EA0B064FEAD44E4FEA50
S31500002740147B4BEA031B4EEA433E8EEA0B0E009BBC
S315000027508EEA040E8EEA030E029B6FEA080783EAEE
S315000027600E04019B2EEA030E8EEA050E8AEA040386
S3150000277025EA08055D40019B8EEA080E2AEA040850
S3150000278088EA030889EA0203734029EA02064640FA
S315000027904FEAC309E80049EA557940EA537089EAE5
S315000027A0030980EAD3105B0643EAD513684089EA39
S315000027B00309724080EA456302921A464FEAD8132B
S315000027C043EA466383EA562383EA080383EAC85545
S315000027D0F30943EA48637340F60546EA5826880A31
S315000027E00195734040EA8E504FEA9E264FEA5E45B9
S315000027F045EAC13580EA514046EA815648406E4076
S315000028004FEA5C0180EACE3086EA0E0641EAC771DD
S315000028108CEA090E81EA0E017D0881EA9C1100927C
S3150000282045EACC7581EA876187EA020E019ABF09FB
S3150000283047EA8C6785EA0E0E84EA08048EEA0705E5
S3150000284086EA020828EA060E85F04B058EEA050E92
S315000028506FEA0E0B80EA030727EA000A8AEA010AF2
S315000028606FEA0A0C009ACDF80CB025EA0205029A26
S3150000287021EA09014FEAD24B4BEA443B8BEA127B31
S315000028808BEA020B8BEA041B8BEA0303594023EA0B
S315000028900703434083EA0A034FEA147B20EA0A0A45
S315000028A0E00C4BEA021B40EA423080EA0B00604033
S315000028B0019C6040454020EA080229EA0100784070
S315000028C0009F724082EA0E0226EA0E0627EA050EED
S315000028D08EEA080E89EA010487EA0508414086EA7D
S315000028E0080685EA0E054FEAD14848EA453888EADF
S315000028F0117888EA01088AEA040488EA05174FEA8B
S31500002900C60848EA547888EAD41888EA060801977F
S31500002910159788EA4668039FCDF858804FEA5C0809
S3150000292048EAC77888EA9C1888EA0C0888EA876823
S31500002930CDF864804FEA932848EA825888EA5348DB
S3150000294088EA030888EAC238CDF86C804FEA157920
S315000029504FEAD54848EA413849EA0119E10041EA17
S3150000296056716140640644EAD61461401791BC0969
S31500002970790844EA8C6441EACC7161407940540C90
S315000029801891910A41EA835144EAC33461404FEAFF
S31500002990DE13514043EA4063C20983EA502342EA08
S315000029A04E62424088EA090883EA0E03C00588EAB7
S315000029B0050B83EACE5340EA5E20CDF850B01A915B
S315000029C00593424008990798059F102902F1004295
S315000029D070F10003CDE91C72C0F09E85DDE91A5442
S315000029E00B460091169902900391DDE917168A4667
S315000029F01998059604900C98184406900D98C318DB
S31500002A0007930798009B0199C31A5868D3F800905A
S31500002A10069E4840009989EA0B09A6EB010C82EA5A
S31500002A20040ECCF80090CCF804005040B1F110022E
S31500002A300092DA68D3F808800299049B82EA0A02B7
S31500002A4061F10001534002911946039E059B88EAF5
S31500002A50060888EA030686F0B403CCF80880CCF8AA
S31500002A600C2021EA02062EEA040C8CEA010C4640F0
S31500002A7020EA0E0080EA0C00604024EA0C0489EA91
S31500002A80070954406F4022EA060282EA0E0227EA4C
S31500002A90050E8EEA030E29EA07016FEA0C0C81EA9D
S31500002AA00E01694025EA0E056FEA0E0E23EA0803B9
S31500002AB083EA090385EA08055D40744028EA0308AD
S31500002AC088EA07084FEAC409EF0049EA557947EA58
S31500002AD0547789EA040987EAD417640644EAD514C8
S31500002AE089EA040401944FEAD81444EA42644FEA9E
S31500002AF0D21B84EA52244BEA486B56406F4084EA64
S31500002B0008048BEA020BD20587EA456984EAC854B1
S31500002B1042EA5822850A03948BEA020B45EA81555C
S31500002B208C0A4A0C019F42EAC03285EA504544EAC3
S31500002B308054454054404FEA5C0285EAC1354C401A
S31500002B408CEA070042EACE724FEA5E0141EACC7196
S31500002B5042408EEA090082EA9C124840039982EAC2
S31500002B608E624FEA9E1E83EA08034EEA8C6E84EA62
S31500002B70010CF10C41EA433181EA167185EA0B0832
S31500002B80714028EA050A81EA03118AEA020A81EA03
S31500002B900B0122EA07024A4021EA08016940CDF802
S31500002BA010C025EA0A0581EA0A0180EA0E004FEA0A
S31500002BB0137B2CEA040E6FEA0A0C4FEAD34A4BEA5F
S31500002BC0061B4AEA463A8AEA0B0A8AEA030A039B82
S31500002BD0059180F0A50004998EEA000E8AEA030AA0
S31500002BE020EA090080EA0A002AEA010389EA0006C7
S31500002BF0634024EA0E04744029EA000686EA0109C5
S31500002C0001996FEA0E070E46564083EA0E036E40A0
S31500002C104FEAC40E21EA020585EA08054EEA567E09
S31500002C204FEAC60848EA54788EEAD61E88EA0608AD
S31500002C308EEA040E760646EAD4168EEA44640194B9
S31500002C404FEAD91444EA456484EA552484EA09041F
S31500002C5084EAC95ECDF80CE04FEAD51E05994EEA26
S31500002C60496E6A408EEA050EED0588EA060A45EACF
S31500002C7059258E0A8EEA050E46EA83569D0A5C0C95
S31500002C8044EAC13486EA514645EA81554E406540DC
S31500002C9086EAC3365D404FEA5C038CEA0A0443EADF
S31500002CA0C7736340019C790883EA9C1341EACC719F
S31500002CB083EA87637C40BF0947EA8C674C407C40C7
S31500002CC0039F01996F4027EA050884F0960480EA7D
S31500002CD0090088EA040824EA0104D10C41EA4031DB
S31500002CE081EA127186EA0E09514029EA060B81EA49
S31500002CF000118BEA030B81EA0E0123EA0A034B401B
S31500002D0021EA090171406FEA0B0C81EA0B0126EA00
S31500002D100B064FEAD04E4FEA107B4BEA021B4EEAF7
S31500002D20423E05968EEA0B0E039E04978EEA000E2F
S31500002D308EEA060E0498019E2EEA000230466FEADD
S31500002D40080784EA0E0460406A4025EA0805454003
S31500002D5026EA0400049E8AEA030E7040059E82EA73
S31500002D60080286EA0E062AEA03084FEAC50E88EA32
S31500002D7009084EEA567E4FEAC60949EA55798EEAAF
S31500002D80D61E8EEA050E89EA060976068EEA456A99
S31500002D9046EAD516C50945EA486585EA58254FEA43
S31500002DA0D81E45404EEA406E83EA080389EA0609C2
S31500002DB085EAC0558E0A8EEA080E4FEAC858019574
S31500002DC0444048EA502846EA8256950A500C40EAA2
S31500002DD0C13086EA514645EA81554E40454086EA6D
S31500002DE0C23655404FEA5C028CEA090042EAC772D5
S31500002DF04240790882EA9C1241EACC7182EA8762F3
S31500002E0087EA0A00BF0947EA8C6748407840019F75
S31500002E108EEA080E6F4027EA050880F0870088EAE8
S31500002E20000804976FEA080786EA0E0C2CEA060BE0
S31500002E308BEA020BCDF80CC06FEA0B0CD90C41EAF9
S31500002E40443181EA13715940059781EA0411039FC1
S31500002E5081EA0E0122EA09024A4021EA070171408D
S31500002E6081EA0B0126EA0B064FEAD44E4FEA147BA1
S31500002E704BEA031B4EEA433E8EEA0B0E019B049F70
S31500002E808EEA040E8EEA030E20EA0A0080EA0E009D
S31500002E902EEA07038AEA00046B4025EA0805654026
S31500002EA089EA020E86EA0E064FEAC50E83EA080391
S31500002EB02AEA000429EA02084EEA567E4FEAC609C3
S31500002EC07C4049EA5579039F8EEAD61E8EEA050EA6
S31500002ED089EA0609760688EA07088EEA456A46EA16
S31500002EE0D516E50945EA486585EA58254FEAD81E0C
S31500002EF065404EEA446E82EA080289EA060985EAD6
S31500002F00C4558E0A8EEA080E4FEAC85860400195ED
S31500002F1048EA542846EA83569D0A5C0C44EAC134C2
S31500002F2086EA514645EA8155059F4E40654086EA48
S31500002F30C3365D404FEA5C038CEA090443EAC77373
S31500002F406340790883EA9C1341EACC7183EA87637C
S31500002F5087EA0A04BF0947EA8C674C407C40019F18
S31500002F608EEA080E6F4027EA050884F0780488EA9E
S31500002F70040804976FEA080786EA0E0C2CEA060B8B
S31500002F808BEA030BCDF80CC06FEA0B0CD10C41EAAF
S31500002F90403181EA12715140059781EA0011039F81
S31500002FA081EA0E0123EA09034B4021EA0701714039
S31500002FB081EA0B0126EA0B064FEAD04E4FEA107B58
S31500002FC04BEA021B4EEA423E8EEA0B0E8EEA000EDA
S31500002FD00198049F8EEA000E24EA0A0484EA0E048D
S31500002FE02EEA07028AEA04006A4025EA08054540F7
S31500002FF089EA030E86EA0E064FEAC50E82EA080241
S315000030002AEA040029EA03084EEA567E4FEAC60970
S31500003010784049EA5579039F8EEAD61E8EEA050E58
S3150000302089EA0609760688EA07088EEA456A46EAC4
S31500003030D516C50945EA486585EA58254FEAD81EDA
S3150000304045404EEA406E83EA080389EA060985EAA6
S31500003050C0558E0A8EEA080E4FEAC85844400195BC
S3150000306048EA502846EA8256950A500C40EAC13092
S3150000307086EA514645EA8155059F4E40454086EA17
S31500003080C23655404FEA5C028CEA090042EAC77232
S315000030904240790882EA9C1241EACC7182EA876250
S315000030A087EA0A00BF0947EA8C6748407840019FD3
S315000030B08EEA080E6F4027EA050880F0690086EA66
S315000030C00E0C88EA0008CDF80CC004976FEA0807D2
S315000030D02CEA060B8BEA020B6FEA0B0CD90C41EAC1
S315000030E0443181EA13715940059781EA0411039F1F
S315000030F081EA0E0122EA09024A4021EA07017140EB
S3150000310081EA0B0126EA0B064FEAD44E4FEA147BFE
S315000031104BEA031B4EEA433E8EEA0B0E019B049FCD
S315000031208EEA040E8EEA030E20EA0A0080EA0E00FA
S315000031302EEA07038AEA00046B4025EA0805654083
S3150000314089EA020E86EA0E064FEAC50E83EA0803EE
S315000031502AEA000429EA02084EEA567E4FEAC60920
S315000031607C4049EA5579039F8EEAD61E8EEA050E03
S3150000317089EA0609760688EA07088EEA456A46EA73
S31500003180D516E50945EA486585EA58254FEAD81E69
S3150000319065404EEA446E82EA080289EA060985EA33
S315000031A0C4558E0A8EEA080E4FEAC858019560404B
S315000031B048EA542846EA83569D0A5C0C44EAC13420
S315000031C086EA514645EA8155059F4E40654086EAA6
S315000031D0C3365D404FEA5C038CEA090443EAC773D1
S315000031E06340790883EA9C1341EACC7183EA8763DA
S315000031F087EA0A04BF0947EA8C674C407C40019F76
S315000032008EEA080E6F4027EA050884F05A0488EA19
S31500003210040804976FEA080786EA0E0C2CEA060BE8
S315000032208BEA030BCDF80CC06FEA0B0CD10C41EA0C
S31500003230403181EA12715140059781EA0011039FDE
S3150000324081EA0E0123EA09034B4021EA0701714096
S3150000325081EA0B0126EA0B064FEAD04E4FEA107BB5
S315000032604BEA021B4EEA423E8EEA0B0E8EEA000E37
S315000032700198049F8EEA000E24EA0A0484EA0E04EA
S315000032802EEA07008AEA0402684025EA0805554046
S3150000329089EA030272404FEAC50E80EA080029EA6D
S315000032A003062AEA04084FEAC2094EEA527E88EA71
S315000032B0070849EA5579039F8EEAD21E89EA020970
S315000032C08EEA050E52067E4042EAD5128EEA456522
S315000032D001954FEAD61E4FEAD81545EA46654EEAED
S315000032E0486E734085EA56258EEA060EF60589EA8B
S315000032F0020985EA080546EA58268A0A85EAC85771
S315000033008EEA060E42EA8052850A460C46EAC13625
S3150000331082EA514245EA815503974A40059F754026
S3150000332082EAC03245404FEA5C008CEA090140EA75
S31500003330C770484001997E0880EA9C1080EA876041
S3150000334046EACC767940BF0947EA8C6771407940F6
S31500003350039F82EA0E0A85EA07062AEA020B84EA36
S3150000336008048BEA000B20EA090726EA05080198FB
S3150000337081F04B016FEA0B0C88EA0108049621EAFA
S3150000338000016FEA0806D80C40EA443080EA137060
S31500003390584080EA041080EA0E00474020EA0A00FE
S315000033A0504080EA0B0022EA0B0EE20C4FEA147B37
S315000033B04BEA031B42EA433282EA0B02039B62405A
S315000033C05A40049B019C22EA03036B4083EA0803EC
S315000033D025EA080529EA070888EA0A0887EA080AA2
S315000033E0514089EA0702049F8EEA020E24EA01028E
S315000033F082EA070984EA010281EA09014FEADA440E
S3150000340044EA413484EA1A7484EA0A046A4084EA83
S3150000341001140194D40044EA5E7484EADE14CD0CEF
S315000034204FEA117B4BEA0A1B544045EA4A3584EAC7
S31500003430426485EA0B0585EA010B03944FEACE0147
S315000034404FEA5C0441EA527144EAC67481EA0E010D
S3150000345084EA9C144FEA4E6E4EEAD21E84EA0C04AD
S315000034607208B50984EA866445EA8C6542EACC723C
S315000034706A400494840A44EA835481EA0E0A9D0A47
S3150000348086EA02015A0C42EAC03284EA504445EA0E
S315000034908055554044404FEAD81E84EAC3344FEA6B
S315000034A0D9175D40009B47EA486705914EEA496E89
S315000034B0029987EA58278EEA080E102B4FEAC85859
S315000034C087EA090748EA592871F1000387EAC957CC
S315000034D08EEA0802BFF495AA039B1D92CDE9163A1F
S315000034E0049B089ACDE91935019B0D991593002384
S315000034F00793B2F1100323F00F03103319440D9113
S315000035000C99059ECDE91B47194402F00F03189646
S31500003510CDF850B00C910893089A0799082A71F1D2
S315000035200003C0F0D5871346083B089361F10003FA
S315000035300D990C980A68079382EA0B024B6814925D
S315000035400260019A16AD53404360159301F10803DA
S315000035500D9300F108030C93DDE916B301930124E2
S315000035600899CB00A3F12002C3F1200604FA02F267
S3150000357024FA06F69C40019B16435E40079B84EAAC
S315000035800B040B43C5E9004640F0A587DDF858B0AB
S31500003590189C0B9B0A9A0F9E1A9984EA0B045940B1
S315000035A01D9D5440DDE91B3286EA030A179B199ECE
S315000035B081EA0209099F8AEA050C84F0F00429EAE7
S315000035C001055E4065407E402CEA0A076FEA050E5B
S315000035D077406FEA0708149824EA0B0442405440E7
S315000035E022EA09026A404A401D9821EA0505159912
S315000035F026EA030641404E4021EA0C01794081EA61
S315000036000A012BEA04002AEA07078BEA040A80EA81
S31500003610090085EA0A0583EA060923EA060383EA1E
S315000036200C0387EA09074FEAC50C4CEA577C8CEA7B
S31500003630D71C8CEA050C8CEA456B4FEAC70C4CEAA2
S31500003640557C8CEA070C7F0647EAD517C50945EA7B
S31500003650436585EA532545408CEA070A85EAC05545
S315000036608F0A009547EA8257950A4FEA524C4CEA70
S31500003670C13C45EA815587EA51474F4085EA0C052A
S315000036804FEAD31C87EAC23755404CEA406C4FEAF2
S315000036905E025E4042EAC8728EEA0B018CEA030CB7
S315000036A0DB0543EA502351404FEA9E1244408CEA20
S315000036B0030C009842EA88624FEA580343EACE7345
S315000036C0514088EA0A02534085EA0002029283EAE0
S315000036D0981322EA0508F20C42EA443282EA16728C
S315000036E087EA0C0081F0E101724088EA010820EACD
S315000036F0070983EA8E6321EA0B0182EA0412CDE907
S31500003700030182EA0C0289EA0301E00C6FEA080968
S315000037104FEA147C6FEA010E4CEA061C23EA0A0300
S3150000372040EA4630534080EA0C0001936040039B18
S31500003730009C029E604022EA0302049C7A404A40B2
S3150000374027EA010784EA000120EA06008BEA010461
S31500003750684025EA080565402BEA01047440019E8D
S3150000376080EA08008AEA06067E40019F61402AEA4E
S31500003770070888EA030887EA0803EF0047EA56774E
S3150000378087EAD6176F4087EA456BF70047EA557711
S315000037907740760646EAD516E50945EA486585EA9C
S315000037A05825654087EA060A85EAC455970A0195B1
S315000037B0860A47EA8057450C45EAC23546EA8256EC
S315000037C087EA52474FEAD81C57406E404CEA446C91
S315000037D087EAC03746408CEA080C4FEA59004FEAA0
S315000037E0C85848EA542840EACE7089EA0B04444097
S315000037F04FEA991040EA8E604FEA5E0242EAC972C9
S3150000380044408EEA0A00424001988CEA080C704057
S3150000381020EA06080390D80C87EA0C0584F0D20447
S3150000382082EA9E1240EA413088EA040E82EA896200
S3150000383080EA137025EA07096FEA0E0889EA020989
S315000038405840CDF810E080EA01106FEA090E80EAD0
S315000038500C0022EA0A0202954240CD0C4FEA117C86
S3150000386000924CEA031C029A45EA433585EA0C05A8
S31500003870019B20EA02004D40039A5D40049925EA27
S31500003880020324EA0B046C4073404B4026EA01060F
S315000038908BEA04014E402BEA04015140009A78401D
S315000038A08AEA020527EA09076F404FEAC60C4CEA86
S315000038B0577C8CEAD71C8CEA060C8CEA466B4FEADE
S315000038C0C70C2AEA02054CEA567C029A8CEA070CD7
S315000038D07F06554047EAD617CE0946EA456686EA88
S315000038E055264E408CEA070A86EAC15CCDF804C02C
S315000038F080EA09009E0A4FEA534C4CEAC03C46EA6D
S315000039008056009A86EA0C064FEAD51C870A4CEACE
S31500003910416C6A4047EA83578CEA050CED054C403A
S3150000392045EA512587EA50474FEA580141EACE71E8
S31500003930474088EA0B0048404FEA981187EAC337A8
S315000039405E4041EA8E614FEA5E0343EAC87348402F
S315000039508EEA0A014B4001998CEA050C83EA9E1314
S3150000396086EA010E87EA0C0583EA886380F0C300C5
S315000039702EEA0608D10CCDF80CE025EA070988EAFC
S31500003980000E41EA44316FEA0E0889EA030981EA2A
S315000039901271CDF810E051406FEA090E81EA041168
S315000039A0029581EA0C0123EA0A03E50C4FEA147C2E
S315000039B04B404CEA021C45EA4235009385EA0C0569
S315000039C0029B6540019C21EA0301039B654025EAB1
S315000039D00302049C20EA0B0068407240624026EA1B
S315000039E004068BEA000466402BEA00045C40009B58
S315000039F079408AEA030527EA09076F404FEAC60CB1
S31500003A004CEA577C8CEAD71C8CEA060C8CEA466B8F
S31500003A104FEAC70C2AEA03054CEA567C029B8CEA5D
S31500003A20070C7F065D4047EAD617E60946EA456673
S31500003A3086EA552666408CEA070A86EAC45C81EA6D
S31500003A400901CDF804C0960A4FEA524C4CEAC13C33
S31500003A5046EA81568F0A009B47EA825786EA0C0699
S31500003A604FEAD51C87EA51474CEA446C6B404F40FD
S31500003A708CEA050C4FEA5801ED05604045EA5425ED
S31500003A8041EACE7188EA0B044C404FEA981187EA66
S31500003A90C237564041EA8E614FEA5E0242EAC87278
S31500003AA04C408EEA0A014A4001998CEA050C82EAEA
S31500003AB09E1286EA010E87EA0C0582EA886284F085
S31500003AC0B4042EEA0608D90CCDF80CE025EA07095D
S31500003AD088EA040E41EA40316FEA0E0889EA0209D3
S31500003AE081EA1371CDF810E059406FEA090E81EAB8
S31500003AF00011029581EA0C0122EA0A02C50C4FEA7E
S31500003B00107C4A404CEA031C45EA4335009285EA9C
S31500003B100C05029A4540019821EA0201039A4540A4
S31500003B2025EA0203049824EA0B046C4073404340E0
S31500003B3026EA00068BEA040046402BEA04005040C1
S31500003B40009A79408AEA020527EA09076F404FEA98
S31500003B50C60C4CEA577C8CEAD71C8CEA060C8CEA1D
S31500003B60466B4FEAC70C2AEA02054CEA567C029AD3
S31500003B708CEA070C7F06554047EAD617C60946EA7F
S31500003B80456686EA552646408CEA070A86EAC05C00
S31500003B90009A81EA0901CDF804C09E0A4FEA534C07
S31500003BA04CEAC13C46EA81568F0A47EA835786EAC1
S31500003BB00C064FEAD51C87EA51474CEA406C6A402E
S31500003BC04F408CEA050C4FEA5801ED05444045EAA2
S31500003BD0502541EACE7188EA0B0048404FEA981119
S31500003BE087EAC3375E4041EA8E614FEA5E0343EAE5
S31500003BF0C87348408EEA0A014B4001998CEA050CCD
S31500003C0083EA9E1386EA010E87EA0C0583EA886337
S31500003C1080F0A5002EEA0608D10CCDF80CE025EAC6
S31500003C20070988EA000E41EA44316FEA0E0889EA7C
S31500003C30030981EA1271CDF810E051406FEA090ECE
S31500003C4081EA0411029581EA0C0123EA0A03E50CD4
S31500003C504FEA147C4B404CEA021C45EA423500937D
S31500003C6085EA0C05029B6540019C21EA0301039B42
S31500003C70654025EA0302049C20EA0B006840724076
S31500003C80624026EA04068BEA000466402BEA00043A
S31500003C905C40009B79408AEA030527EA09076F40E2
S31500003CA04FEAC60C4CEA577C8CEAD71C8CEA060C09
S31500003CB08CEA466B4FEAC70C2AEA03054CEA567CA7
S31500003CC0029B8CEA070C7F065D4047EAD617E60999
S31500003CD046EA456686EA552666408CEA070A86EA7B
S31500003CE0C45C81EA0901CDF804C0960A4FEA524C39
S31500003CF04CEAC13C46EA81568F0A009B47EA825746
S31500003D0086EA0C064FEAD51C87EA51474CEA446C12
S31500003D106B404F408CEA050C4FEA5801ED056040B8
S31500003D2045EA542541EACE7188EA0B044C404FEA35
S31500003D30981187EAC237564041EA8E614FEA5E0221
S31500003D4042EAC8724C408EEA0A014A4001998CEA5E
S31500003D50050C82EA9E1286EA010E87EA0C0582EAC3
S31500003D60886284F096042EEA0608D90CCDF80CE099
S31500003D7025EA070988EA040E41EA40316FEA0E088F
S31500003D8089EA020981EA1371CDF810E059406FEA19
S31500003D90090E81EA0011029581EA0C0122EA0A0263
S31500003DA0C50C4FEA107C4A404CEA031C45EA4335F1
S31500003DB0009285EA0C05029A4540019821EA020123
S31500003DC0039A454025EA0203049824EA0B046C4052
S31500003DD07340434026EA00068BEA040046402BEA7D
S31500003DE004005040009A79408AEA020527EA09074A
S31500003DF06F404FEAC60C4CEA577C8CEAD71C8CEA1B
S31500003E00060C8CEA466B4FEAC70C2AEA02054CEA16
S31500003E10567C029A8CEA070C7F06554047EAD6176D
S31500003E20C60946EA456686EA552646408CEA070AEA
S31500003E3086EAC05C81EA0901CDF804C09E0A4FEA11
S31500003E40534C4CEAC13C46EA81568F0A009A47EA2F
S31500003E50835786EA0C064FEAD51C87EA51474CEA97
S31500003E60406C6A404F408CEA050C4FEA5801ED055C
S31500003E70444045EA502541EACE7188EA0B004840A5
S31500003E804FEA981187EAC3375E4041EA8E614FEAEE
S31500003E905E0343EAC87348408EEA0A014B40019923
S31500003EA08CEA050C83EA9E1386EA010E87EA0C0566
S31500003EB083EA886380F087002EEA0608D10CCDF8E5
S31500003EC00CE025EA070988EA000E41EA44316FEA68
S31500003ED00E0889EA030981EA1271CDF810E0514013
S31500003EE06FEA090E81EA0411029581EA0C0123EAC0
S31500003EF00A03E50C4FEA147C4B404CEA021C45EAE7
S31500003F004235009385EA0C05029B6540019C21EA37
S31500003F100301039B654025EA0302049C20EA0B008B
S31500003F2068407240624026EA04068BEA0004664056
S31500003F302BEA00045C40009B79408AEA030527EAE5
S31500003F4009076F404FEAC60C4CEA577C8CEAD71C2F
S31500003F508CEA060C8CEA466B4FEAC70C2AEA030584
S31500003F604CEA567C029B8CEA070C7F065D4047EACA
S31500003F70D617E60946EA456686EA552666408CEA7D
S31500003F80070A86EAC45CCDF804C081EA0901960AEC
S31500003F904FEA524C4CEAC13C46EA81568F0A009BD6
S31500003FA047EA825786EA0C064FEAD51C87EA51474C
S31500003FB04CEA446C6B404F408CEA050C4FEA5801C2
S31500003FC0ED05604045EA542541EACE7188EA0B04C6
S31500003FD04C404FEA981187EAC237564041EA8E6153
S31500003FE04FEA5E0242EAC8724C408EEA0A014A4033
S31500003FF001998CEA050C82EA9E1286EA010E87EA8E
S315000040000C0582EA886284F078042EEA0608D90C48
S31500004010CDF80CE025EA070988EA040E41EA4031AA
S315000040206FEA0E0889EA020981EA1371CDF810E0F9
S3150000403059406FEA090E81EA0011029581EA0C01E6
S3150000404022EA0A02C50C4FEA107C4A404CEA031CDD
S3150000405045EA4335009285EA0C05029A45400198E7
S3150000406021EA0201039A454025EA0203049824EA5C
S315000040700B046C407340434026EA00068BEA0400BA
S3150000408046402BEA04005040009A79408AEA02052D
S3150000409027EA09076F404FEAC60C4CEA577C8CEAC0
S315000040A0D71C8CEA060C8CEA466B4FEAC70C2AEA48
S315000040B002054CEA567C029A8CEA070C7F065540AC
S315000040C047EAD617C60946EA456686EA55264640B1
S315000040D08CEA070A86EAC05C81EA0901CDF804C0C9
S315000040E09E0A4FEA534C4CEAC13C46EA81568F0A77
S315000040F0009A47EA835786EA0C064FEAD51C87EAF8
S3150000410051474CEA406C6A404F408CEA050C4FEA36
S315000041105801ED05444045EA502541EACE7188EA4A
S315000041200B0048404FEA981187EAC3375E4041EAE0
S315000041308E614FEA5E0343EAC87348408EEA0A017D
S315000041404B4001998CEA050C83EA9E1386EA010E20
S31500004150D10C87EA0C0583EA886380F069002EEAB1
S31500004160060841EA4431CDF80CE025EA070988EA59
S31500004170000E81EA12716FEA0E0889EA03095140BE
S31500004180CDF810E081EA04116FEA090E029581EA82
S315000041900C0123EA0A03E50C4FEA147C4B404CEA77
S315000041A0021C45EA4235009385EA0C05029B6540F0
S315000041B0019C21EA0301039B654025EA0302049C56
S315000041C020EA0B0068407240624026EA04068BEA49
S315000041D0000466402BEA00045C40009B79408AEAB2
S315000041E0030527EA09076F404FEAC60C4CEA577CDD
S315000041F08CEAD71C8CEA060C8CEA466B4FEAC70C95
S315000042002AEA03054CEA567C029B8CEA070C7F06D9
S315000042105D4047EAD617E60946EA456686EA552628
S3150000422066408CEA070A86EAC45C009B81EA0901BB
S31500004230CDF800C0960A4FEA524C4CEAC13C46EA19
S3150000424081568F0A47EA825786EA0C064FEAD51C42
S3150000425087EA51474CEA446C6B404F408CEA050CA8
S31500004260ED0587EAC237564045EA54254FEA58021B
S315000042708CEA050C42EACE7288EA0B0555404FEAF5
S31500004280981242EA8E624FEA5E01604041EAC871C6
S31500004290009C55408EEA0A02514081EA9E1186EA48
S315000042A0040281EA886185F05A0522EA060888EA4E
S315000042B005086FEA080E87EA0C0425EA0B05049543
S315000042C0254624EA070989EA0109CDF80CE06FEAD8
S315000042D0090E0192DA0C42EA403282EA13725A401F
S315000042E082EA001282EA0C02C40C4FEA107C4CEA05
S315000042F0031C44EA433421EA0A01009B84EA0C04C5
S315000043005140029522EA05024440049D5C40019812
S3150000431065402BEA050C8CEA000C7A4024EA00047E
S3150000432027EA09078AEA010078408BEA0503029F1B
S31500004330744026EA08065E402AEA01037B40F7003D
S3150000434082EA090247EA50774FEAC00987EAD0179E
S3150000435049EA5679774089EA0009400687EA4667BE
S3150000436040EAD6104FEAD31B4FEADC1646EA43660C
S315000043704BEA4C6B59408BEA030B86EA5326DB0566
S3150000438085EA0C0589EA000986EA0C06C80C43EAA8
S315000043905C2386EACC5640EA45308BEA030CEB0CEC
S315000043A04FEA157B00964BEA011B039E80EA1170CB
S315000043B043EA4133484083EA0B0300994FEA560A21
S315000043C06B4084EA08044AEACE7A4B404FEA9228C8
S315000043D080EA0510B10986EA070541EA8E6148EAD6
S315000043E084588AEA050588EA52484FEA5E0B4D4032
S315000043F04FEA544AA10A4AEAC23A88EA02084BEA54
S31500004400C67B41EA82518EEA09028BEA020B85F0ED
S315000044104B0581EA0A018BEA9E1B88EAC4388BEABF
S31500004420866B6140009E25EA07045C4080EA0C002A
S3150000443027EA040781EA060431432BEA090688EADB
S315000044400C02464048EA0C0C29EA060620EA02005D
S3150000445023EA040372407C400F9E099F80EA0C0009
S3150000446080EA0B004B406B4080EA070C82EA0607A5
S31500004470860A0A9D46EA835686EA0C0683EA050EF4
S3150000448086EA5046109D86EAC3360B996E60E609A9
S3150000449046EA42666140714081EA522181EAC4518E
S315000044A0A960990A5B0C41EA805143EAC0330020B7
S315000044B081EA0E014B402B60D30943EA4463D205DF
S315000044C07B4042EA54225340EB601FB0BDE8F08FB8
S315000044D014ADFFF744B84FF000084FF00009089FED
S315000044E00D993A4612A8CDE9128904F036FC129BC2
S315000044F03A465C40139B0C985E4012A92C606E6095
S315000045001294139604F029FCFFF740B8082E73F1B5
S31500004510000213D332463968019881EA0B011491DF
S315000045207968083A81EA0001D34663F100031591E0
S31500004530CDF804E0083716ADFDF7D7BC0121F00031
S31500004540A0F12004C0F1200301FA04F421FA03F3D8
S3150000455023433246019C039E81404E405C40CDE998
S31500004560146414AD4FF000084FF00009394612A844
S31500004570CDE9128904F0F1FB129B73402B60139B6B
S3150000458063406B60FDF7C6BC8C4630B4099CDDE920
S31500004590023113F11005089441F100040A990991BA
S315000045A0CCE90054014630BC1844FBF7F9BE00BF05
S315000045B010B41C481C491D4A1D4B04680868116844
S315000045C01A681C4B4FEA146C83F800C0C4F3074CFE
S315000045D083F801C0C4F3072CE4B283F802C0DC7090
S315000045E0040E1C71C0F307445C71C0F307249C7170
S315000045F0C0B20C0ED8711C72C1F30720C1F3074478
S31500004600C9B25C729872140ED972C2F30740C2F333
S315000046100721D2B21C7358739973DA735DF8044B91
S31500004620704700BF0C000020080000200400002096
S3150000463000000020000F0020F0B50F4C8DB00B9449
S3150000464004460D461F461646FFF7B2FF20460B4CA2
S315000046500B4B294607940025032408930023CDE934
S3150000466004450BAC3246CDE9013400970693FFF7BB
S315000046708BFF0DB0F0BD00BF6C737300E0AE0000A1
S31500004680000F002070B52C4E2C4D344606F5806E7A
S3150000469095E80F0084E80F0010347445F8D1284DD2
S315000046A0284C06F5006C95E80F0084E80F001034DE
S315000046B06445F8D1244C254D04F5806C95E80F002F
S315000046C084E80F0010346445F8D1BDE87040B7EEB9
S315000046D0000A7046714672467346F7EE000AB7EE58
S315000046E0001AF7EE001AB7EE002AF7EE002AB7EE28
S315000046F0003AF7EE003AB7EE004AF7EE004AB7EE98
S31500004700005AF7EE005AB7EE006AF7EE006AB7EE07
S31500004710007AF7EE007A8EF3008C10B4F1EE10CA30
S315000047204FF66074C0F6FF740CEA040CE1EE10CA92
S3150000473010BCF446744700BF1000002038AE0000DD
S315000047404CAE0000100400201008002060AE0000EF
S31500004750022908B58E4643D89C469444BCF5806F22
S315000047603ED80146204802EB8E22024401F10800A1
S31500004770FFF762FF0020BDE80840714672467346A7
S31500004780B7EE000AF7EE000AB7EE001AF7EE001AC7
S31500004790B7EE002AF7EE002AB7EE003AF7EE003A37
S315000047A0B7EE004AF7EE004AB7EE005AF7EE005AA7
S315000047B0B7EE006AF7EE006AB7EE007AF7EE007A17
S315000047C08EF3008C10B4F1EE10CA4FF66074C0F68A
S315000047D0FF740CEA040CE1EE10CA10BCF4467447F0
S315000047E04FF0FF30C7E700BF100000208388014666
S315000047F0B3F5806F1BD006D9B3F5006F21D1012226
S31500004800194B1A707047202B23D8012B0ED9174A43
S31500004810023B9BB222FA03F3DB0723D54FF0010CD0
S3150000482013488A68134B80F800C01A6070474FF02F
S31500004830010C114B4C221148143183F800C004F0CE
S315000048408CBAF3D3B3F5805FE8D0B3F5005FEDD152
S31500004850E4E7B3F5807FE1D0B3F5007FDED0802BAF
S31500004860E4D1DBE7704700BF1E0F00204540004043
S315000048701C0F0020180F00201D0F0020200F002005
S3150000488083880146B3F5806F1BD006D9B3F5006F58
S3150000489021D10122194B1A707047202B23D8012BE6
S315000048A00ED9174A023B9BB222FA03F3DB0723D544
S315000048B04FF0010C13488A68134B80F800C01A6049
S315000048C070474FF0010C114B4C221148143183F8FC
S315000048D000C004F042BAF3D3B3F5805FE8D0B3F575
S315000048E0005FEDD1E4E7B3F5807FE1D0B3F5007F5B
S315000048F0DED0802BE4D1DBE7704700BF720F0020CB
S3150000490045400040700F00206C0F0020710F002002
S31500004910740F002010B50D4B1B68B3FBF0F0013887
S31500004920B0F1807F0CD24FF0E0234FF0F00C002165
S315000049300722074C586184F823C099611A6110BD9B
S315000049401E21044B044A054802F076FEB81A0020E0
S3150000495000ED00E074AE0000F4B6000080AE00008A
S3150000496010B4084A084C136801331360D4E90023D5
S3150000497012F10A0043F10001C4E900015DF8044B9D
S31500004980704700BFC00F0020100F002008B51C495B
S315000049901C4802F057F9BDE8084071467246734656
S315000049A0B7EE000AF7EE000AB7EE001AF7EE001AA5
S315000049B0B7EE002AF7EE002AB7EE003AF7EE003A15
S315000049C0B7EE004AF7EE004AB7EE005AF7EE005A85
S315000049D0B7EE006AF7EE006AB7EE007AF7EE007AF5
S315000049E08EF3008C10B4F1EE10CA4FF66074C0F668
S315000049F0FF740CEA040CE1EE10CA10BCF4467447CE
S31500004A0038B70000FC0F002008B51C4801F0B4FFC1
S31500004A10BDE80840714672467346B7EE000AF7EEE7
S31500004A20000AB7EE001AF7EE001AB7EE002AF7EE04
S31500004A30002AB7EE003AF7EE003AB7EE004AF7EE74
S31500004A40004AB7EE005AF7EE005AB7EE006AF7EEE4
S31500004A50006AB7EE007AF7EE007A8EF3008C10B497
S31500004A60F1EE10CA4FF66074C0F6FF740CEA040C3F
S31500004A70E1EE10CA10BCF446744700BFFC0F0020DC
S31500004A8010B510460C4602224C2103F0A1F8C8B31B
S31500004A90024621461C4802F04DF8BDE8104071461A
S31500004AA072467346B7EE000AF7EE000AB7EE001A32
S31500004AB0F7EE001AB7EE002AF7EE002AB7EE003A34
S31500004AC0F7EE003AB7EE004AF7EE004AB7EE005AA4
S31500004AD0F7EE005AB7EE006AF7EE006AB7EE007A14
S31500004AE0F7EE007A8EF3008C10B4F1EE10CA4FF692
S31500004AF06074C0F6FF740CEA040CE1EE10CA10BC38
S31500004B00F44674470120C8E7FC0F002010B5104694
S31500004B100C4602224C2103F05BF8C8B3024621463C
S31500004B201C4801F00FFEBDE8104071467246734600
S31500004B30B7EE000AF7EE000AB7EE001AF7EE001A13
S31500004B40B7EE002AF7EE002AB7EE003AF7EE003A83
S31500004B50B7EE004AF7EE004AB7EE005AF7EE005AF3
S31500004B60B7EE006AF7EE006AB7EE007AF7EE007A63
S31500004B708EF3008C10B4F1EE10CA4FF66074C0F6D6
S31500004B80FF740CEA040CE1EE10CA10BCF44674473C
S31500004B900120C8E7FC0F002008B51C4801F068FF9B
S31500004BA0BDE80840714672467346B7EE000AF7EE56
S31500004BB0000AB7EE001AF7EE001AB7EE002AF7EE73
S31500004BC0002AB7EE003AF7EE003AB7EE004AF7EEE3
S31500004BD0004AB7EE005AF7EE005AB7EE006AF7EE53
S31500004BE0006AB7EE007AF7EE007A8EF3008C10B406
S31500004BF0F1EE10CA4FF66074C0F6FF740CEA040CAE
S31500004C00E1EE10CA10BCF446744700BFFC0F00204A
S31500004C10084608B50222142102F0DAFFC0B30146A5
S31500004C201C4801F01FFDBDE80840714672467346F8
S31500004C30B7EE000AF7EE000AB7EE001AF7EE001A12
S31500004C40B7EE002AF7EE002AB7EE003AF7EE003A82
S31500004C50B7EE004AF7EE004AB7EE005AF7EE005AF2
S31500004C60B7EE006AF7EE006AB7EE007AF7EE007A62
S31500004C708EF3008C10B4F1EE10CA4FF66074C0F6D5
S31500004C80FF740CEA040CE1EE10CA10BCF44674473B
S31500004C900120C8E7FC0F002070B50846164604211F
S31500004CA002221D4602F094FF68B1044602226021EA
S31500004CB0284602F08DFF034628B1324621461D489C
S31500004CC001F026FF00E00120BDE870407146724603
S31500004CD07346B7EE000AF7EE000AB7EE001AF7EED3
S31500004CE0001AB7EE002AF7EE002AB7EE003AF7EE02
S31500004CF0003AB7EE004AF7EE004AB7EE005AF7EE72
S31500004D00005AB7EE006AF7EE006AB7EE007AF7EEE1
S31500004D10007A8EF3008C10B4F1EE10CA4FF6607470
S31500004D20C0F6FF740CEA040CE1EE10CA10BCF4469F
S31500004D30744700BFFC0F002008B51C491C4801F051
S31500004D4081FFBDE80840714672467346B7EE000A19
S31500004D50F7EE000AB7EE001AF7EE001AB7EE002AD1
S31500004D60F7EE002AB7EE003AF7EE003AB7EE004A41
S31500004D70F7EE004AB7EE005AF7EE005AB7EE006AB1
S31500004D80F7EE006AB7EE007AF7EE007A8EF3008C43
S31500004D9010B4F1EE10CA4FF66074C0F6FF740CEA58
S31500004DA0040CE1EE10CA10BCF446744750B700007C
S31500004DB01810002008B51C4801F0DEFDBDE80840CB
S31500004DC0714672467346B7EE000AF7EE000AB7EE72
S31500004DD0001AF7EE001AB7EE002AF7EE002AB7EE31
S31500004DE0003AF7EE003AB7EE004AF7EE004AB7EEA1
S31500004DF0005AF7EE005AB7EE006AF7EE006AB7EE11
S31500004E00007AF7EE007A8EF3008C10B4F1EE10CA39
S31500004E104FF66074C0F6FF740CEA040CE1EE10CA9B
S31500004E2010BCF446744700BF1810002010B5104699
S31500004E300C4602224C2102F0CBFEC8B302462146A4
S31500004E401C4801F077FEBDE8104071467246734675
S31500004E50B7EE000AF7EE000AB7EE001AF7EE001AF0
S31500004E60B7EE002AF7EE002AB7EE003AF7EE003A60
S31500004E70B7EE004AF7EE004AB7EE005AF7EE005AD0
S31500004E80B7EE006AF7EE006AB7EE007AF7EE007A40
S31500004E908EF3008C10B4F1EE10CA4FF66074C0F6B3
S31500004EA0FF740CEA040CE1EE10CA10BCF446744719
S31500004EB00120C8E71810002010B510460C46022243
S31500004EC04C2102F085FEC8B3024621461C4801F07B
S31500004ED039FCBDE81040714672467346B7EE000ACB
S31500004EE0F7EE000AB7EE001AF7EE001AB7EE002A40
S31500004EF0F7EE002AB7EE003AF7EE003AB7EE004AB0
S31500004F00F7EE004AB7EE005AF7EE005AB7EE006A1F
S31500004F10F7EE006AB7EE007AF7EE007A8EF3008CB1
S31500004F2010B4F1EE10CA4FF66074C0F6FF740CEAC6
S31500004F30040CE1EE10CA10BCF44674470120C8E721
S31500004F401810002008B51C4801F092FDBDE8084085
S31500004F50714672467346B7EE000AF7EE000AB7EEE0
S31500004F60001AF7EE001AB7EE002AF7EE002AB7EE9F
S31500004F70003AF7EE003AB7EE004AF7EE004AB7EE0F
S31500004F80005AF7EE005AB7EE006AF7EE006AB7EE7F
S31500004F90007AF7EE007A8EF3008C10B4F1EE10CAA8
S31500004FA04FF66074C0F6FF740CEA040CE1EE10CA0A
S31500004FB010BCF446744700BF18100020084608B518
S31500004FC00222142102F004FEC0B301461C4801F07F
S31500004FD049FBBDE80840714672467346B7EE000AC3
S31500004FE0F7EE000AB7EE001AF7EE001AB7EE002A3F
S31500004FF0F7EE002AB7EE003AF7EE003AB7EE004AAF
S31500005000F7EE004AB7EE005AF7EE005AB7EE006A1E
S31500005010F7EE006AB7EE007AF7EE007A8EF3008CB0
S3150000502010B4F1EE10CA4FF66074C0F6FF740CEAC5
S31500005030040CE1EE10CA10BCF44674470120C8E720
S315000050401810002070B508461646042102221D4697
S3150000505002F0BEFD68B1044602226021284602F035
S31500005060B7FD034628B1324621461D4801F050FDE2
S3150000507000E00120BDE87040714672467346B7EE07
S31500005080000AF7EE000AB7EE001AF7EE001AB7EEBE
S31500005090002AF7EE002AB7EE003AF7EE003AB7EE2E
S315000050A0004AF7EE004AB7EE005AF7EE005AB7EE9E
S315000050B0006AF7EE006AB7EE007AF7EE007A8EF332
S315000050C0008C10B4F1EE10CA4FF66074C0F6FF748F
S315000050D00CEA040CE1EE10CA10BCF446744700BF9B
S315000050E01810002008B51C491C4800F04FFEBDE80A
S315000050F00840714672467346B7EE000AF7EE000A9C
S31500005100B7EE001AF7EE001AB7EE002AF7EE002AFD
S31500005110B7EE003AF7EE003AB7EE004AF7EE004A6D
S31500005120B7EE005AF7EE005AB7EE006AF7EE006ADD
S31500005130B7EE007AF7EE007A8EF3008C10B4F1EE3B
S3150000514010CA4FF66074C0F6FF740CEA040CE1EE68
S3150000515010CA10BCF446744704B70000CC0F0020F8
S3150000516010B5144608460222214602F031FDC8B3A6
S31500005170014622461C4800F017FDBDE81040714666
S3150000518072467346B7EE000AF7EE000AB7EE001A4B
S31500005190F7EE001AB7EE002AF7EE002AB7EE003A4D
S315000051A0F7EE003AB7EE004AF7EE004AB7EE005ABD
S315000051B0F7EE005AB7EE006AF7EE006AB7EE007A2D
S315000051C0F7EE007A8EF3008C10B4F1EE10CA4FF6AB
S315000051D06074C0F6FF740CEA040CE1EE10CA10BC51
S315000051E0F44674470120C8E7CC0F002010B51446DA
S315000051F008460222214602F0EBFCC8B301462246CD
S315000052001C4800F0D7FCBDE8104071467246734654
S31500005210B7EE000AF7EE000AB7EE001AF7EE001A2C
S31500005220B7EE002AF7EE002AB7EE003AF7EE003A9C
S31500005230B7EE004AF7EE004AB7EE005AF7EE005A0C
S31500005240B7EE006AF7EE006AB7EE007AF7EE007A7C
S315000052508EF3008C10B4F1EE10CA4FF66074C0F6EF
S31500005260FF740CEA040CE1EE10CA10BCF446744755
S315000052700120C8E7CC0F0020084608B50222042109
S3150000528002F0A6FCC0B301461C4800F0BBFCBDE81A
S315000052900840714672467346B7EE000AF7EE000AFA
S315000052A0B7EE001AF7EE001AB7EE002AF7EE002A5C
S315000052B0B7EE003AF7EE003AB7EE004AF7EE004ACC
S315000052C0B7EE005AF7EE005AB7EE006AF7EE006A3C
S315000052D0B7EE007AF7EE007A8EF3008C10B4F1EE9A
S315000052E010CA4FF66074C0F6FF740CEA040CE1EEC7
S315000052F010CA10BCF44674470120C8E7CC0F002042
S31500005300084608B50222082102F062FCC0B3014635
S315000053101C4800F0ABFCBDE8084071467246734677
S31500005320B7EE000AF7EE000AB7EE001AF7EE001A1B
S31500005330B7EE002AF7EE002AB7EE003AF7EE003A8B
S31500005340B7EE004AF7EE004AB7EE005AF7EE005AFB
S31500005350B7EE006AF7EE006AB7EE007AF7EE007A6B
S315000053608EF3008C10B4F1EE10CA4FF66074C0F6DE
S31500005370FF740CEA040CE1EE10CA10BCF446744744
S315000053800120C8E7CC0F002008B51C4800F0A6FB9A
S31500005390BDE80840714672467346B7EE000AF7EE5E
S315000053A0000AB7EE001AF7EE001AB7EE002AF7EE7B
S315000053B0002AB7EE003AF7EE003AB7EE004AF7EEEB
S315000053C0004AB7EE005AF7EE005AB7EE006AF7EE5B
S315000053D0006AB7EE007AF7EE007A8EF3008C10B40E
S315000053E0F1EE10CA4FF66074C0F6FF740CEA040CB6
S315000053F0E1EE10CA10BCF446744700BFCC0F002083
S3150000540008B51C4800F038FCBDE8084071467246F5
S315000054107346B7EE000AF7EE000AB7EE001AF7EE8B
S31500005420001AB7EE002AF7EE002AB7EE003AF7EEBA
S31500005430003AB7EE004AF7EE004AB7EE005AF7EE2A
S31500005440005AB7EE006AF7EE006AB7EE007AF7EE9A
S31500005450007A8EF3008C10B4F1EE10CA4FF6607429
S31500005460C0F6FF740CEA040CE1EE10CA10BCF44658
S31500005470744700BFCC0F002070B504460D46164693
S3150000548004210222184602F0A3FBD0B3034632469B
S315000054902946204600F058FEBDE870407146724627
S315000054A07346B7EE000AF7EE000AB7EE001AF7EEFB
S315000054B0001AB7EE002AF7EE002AB7EE003AF7EE2A
S315000054C0003AB7EE004AF7EE004AB7EE005AF7EE9A
S315000054D0005AB7EE006AF7EE006AB7EE007AF7EE0A
S315000054E0007A8EF3008C10B4F1EE10CA4FF6607499
S315000054F0C0F6FF740CEA040CE1EE10CA10BCF446C8
