:020000021000EC
:10000000F0B4012085240100212301008124010096
:100010008124010081240100812401008124010048
:10002000000000000000000000000000E50B0100DF
:100030008124010000000000110C0100B50C01003A
:1000400000000000000000000000000000000000B0
:1000500000000000000000000000000000000000A0
:100060000000000000000000000000000000000090
:100070003521010000000000000000000000000029
:100080000000000000000000000000000000000070
:100090000000000000000000000000000000000060
:1000A0000000000000000000000000000000000050
:1000B0000000000000000000000000000000000040
:1000C0000000000000000000000000000000000030
:1000D0000000000000000000000000000000000020
:1000E0000000000000000000000000000000000010
:1000F0000000000000000000000000000000000000
:1001000000000000000000000000000000000000EF
:1001100000000000000000000000000000000000DF
:1001200000000000000000000000000000000000CF
:1001300000000000000000000000000000000000BF
:1001400000000000000000000000000000000000AF
:10015000000000000000000000000000000000009F
:10016000000000000000000000000000000000008F
:10017000000000000000000000000000000000007F
:10018000000000000000000000000000000000006F
:10019000000000000000000000000000000000005F
:1001A000000000000000000000000000000000004F
:1001B000000000000000000000000000000000003F
:1001C0000348044B834202D0034B03B118477047E6
:1001D000186200201862002000000000064B07494A
:1001E000C91A891048BF0131491003D0044B0BB123
:1001F00001481847704700BF1862002018620020AD
:100200000000000010B5064C237843B9FFF7D8FF73
:10021000044B13B10448AFF300800123237010BDD9
:100220004062002000000000B4FB010008B5054B4F
:100230001BB105490548AFF30080BDE80840FFF752
:10024000CDBF00BF0000000044620020B4FB0100ED
:100250000379022B07D0042B08D18368302B0AD0F6
:10026000312B04D070470122054B1A7070470122D0
:10027000044B1A7070470122034B1A70704700BF7D
:100280005F6200205C6200205D620020002108B5F2
:100290000846FDF7B9FA0022064B10460649FDF75D
:1002A000F7FA00B908BD1321044B054A054802F0CE
:1002B00003F800BF606200205102010028D2010053
:1002C000B4EE010040D2010010B500201446FDF745
:1002D00013FB38B906490B78002BFCD000230B70B8
:1002E000204610BD4921034B034A044801F0E4FFB6
:1002F0005F62002028D20100ACEE010040D2010074
:1003000070B500200E461546FDF7EEFA054C237831
:10031000002BFCD000202A4631462070FDF7ECFA75
:10032000284670BD5E620020022801D80120704777
:1003300008B50AF03FFB092203461A60002008BDF9
:10034000022801D80020704708B50AF033FB0922C3
:1003500003461A604FF0FF3008BD00BF08B50AF031
:1003600029FB092203461A604FF0FF3008BD00BF89
:10037000022808B504D84FF4005300204B6008BD94
:100380000AF018FB09230360002008BD838801469A
:10039000B3F5806F1BD006D9B3F5006F21D10122D0
:1003A000194B1A707047202B23D8012B0ED9174AEE
:1003B000023B9BB222FA03F3DB0723D54FF0010C7B
:1003C00013488A68134B80F800C01A6070474FF0DA
:1003D000010C114B4C221148143183F800C00AF073
:1003E00000BBF3D3B3F5805FE8D0B3F5005FEDD188
:1003F000E4E7B3F5807FE1D0B3F5007FDED0802B5A
:10040000E4D1DBE7704700BF766200204540004042
:100410007462002070620020756200207862002003
:10042000002108B50846FDF72FFA0022064B1046BA
:100430000649FDF75DFA00B908BD1321044B054AD2
:10044000054801F039FF00BFC46200208D030100A0
:1004500028D20100C8EE01005CD201008388014669
:10046000B3F5806F1BD006D9B3F5006F21D10122FF
:10047000194B1A707047202B23D8012B0ED9174A1D
:10048000023B9BB222FA03F3DB0723D54FF0010CAA
:1004900013488A68134B80F800C01A6070474FF009
:1004A000010C114B4C221148143183F800C00AF0A2
:1004B00098BAF3D3B3F5805FE8D0B3F5005FEDD120
:1004C000E4E7B3F5807FE1D0B3F5007FDED0802B89
:1004D000E4D1DBE7704700BF2A63002045400040BD
:1004E0002863002024630020296300202C6300205F
:1004F000002108B50846FDF7C3F90022064B104657
:100500000649FDF7CDF900B908BD1221044B054A93
:10051000054801F0D1FE00BF786300205D040100B2
:1005200028D20100D4EE01007CD2010010B50D4BA1
:100530001B68B3FBF0F00138B0F1807F0CD24FF0B4
:10054000E0234FF0F00C00210722074C586184F89B
:1005500023C099611A6110BD1F21044B044A05484C
:1005600001F0AAFE80A8002000ED00E09CD201006E
:10057000E0EE0100A8D20100F0B589B0FFF786FED9
:10058000FDF74EF9FFF74CFFFFF7B2FF6420FFF7CE
:10059000CDFF63480AF05EF80022082311460DEBF8
:1005A0000300FDF785F9002800F08F805D480AF010
:1005B00051F85D4C5D480AF04DF85D480AF04AF884
:1005C0005C4B5D4A5D495E48009405F0D1FA002815
:1005D00075D05C480AF03EF84FF47A7003F05EFA8A
:1005E00000F0B8F948BB584F3B68DC0740F18B80FE
:1005F0003B68580749D5554C2368632B24D8544E83
:10060000544D0EE02B68212001332B6009F0C4FF0C
:1006100023680A200133236003F040FA2368632B28
:1006200043D8306800F0D4F80028EBD1AB682E2016
:100630000133AB6009F0B0FFEAE7434C23689B0746
:1006400016D52E2009F0A8FF414E43480AF002F8C3
:10065000029C204601F098FF00285CD022463068BA
:1006600004A900F0A3F960B93C4809F0F3FFFEE7E4
:100670003B4809F07FFF2368354E43F002032360B7
:10068000E3E7384809F0E6FFF1E700F077F900F01A
:10069000F3F83B685907AED42D4E2C4C32483168E4
:1006A00009F068FF2368632BAAD93B685A07CCD4AA
:1006B00000F0CAF83B6843F004033B60C5E701461D
:1006C0002A4809F057FF00BE83E70446284809F08E
:1006D000C1FFDDE90232134311D02546254F0DF14C
:1006E0000F06384616F8011F09F044FFDDE9022322
:1006F000013445F10005944275EB0303F1D3094839
:1007000009F0A8FF52E71C4809F0A4FF3B6843F03A
:1007100001033B606CE7194809F09CFF9EE700BFAE
:10072000C8D201000CD301000860002010D30100E2
:100730002CD3010018640020006000200460002019
:100740001C640020D8D30100D8630020DC630020A3
:1007500010600020E06300202CD4010070D4010060
:1007600018D4010084D4010004D40100A0D30100F6
:10077000E8D2010004D30100F0D3010058D40100F5
:10078000022800D070470249024800F01DBE00BF99
:1007900080EF010028640020114438B50B4418187C
:1007A00000D138BD09F08EF9044609F08BF90546F1
:1007B00009F088F9054BC4F30E0444EA807403EA97
:1007C000C5331C4314BF0120002038BD0080FF3F0B
:1007D00008B507F0D3F9BDE808400A22082105F062
:1007E00059BA00BF044A18B95368013353607047BF
:1007F0009368013393607047E063002038B5A8B177
:100800000128044601D0002038BD0B4B0B4D186069
:10081000296005F0EBFC686005F0D8FCA86005F0E5
:10082000DDFC074BE8601C60002038BD0122054B51
:1008300000201A6038BD00BF20640020046400203E
:10084000EC6300202464002010B5074B07481968AA
:1008500009F090FEBDE8104005490648D1E90123A2
:10086000096809F087BE00BF1060002098D401001D
:10087000E0630020B8D401002DE9F041DFF8D0801A
:1008800082B0D8F80030002B37D1234E234D244CB2
:10089000244F254809F0DEFE244809F0DBFE244AF7
:1008A000244BD8F80010244800290CBF11461946E3
:1008B00009F060FEFB7821480093BB787A7839789C
:1008C00009F058FEF3781E480093B37872783178B7
:1008D00009F050FEEA78AB7800926A7829781948D6
:1008E00009F048FEE578A3786278217816480095EB
:1008F00009F040FE02B0BDE8F081144B064E5A6884
:10090000064D32609A68064C064F2A60DA681B680A
:1009100022603B60BDE700BF046000200060002053
:10092000186400201C640020FCD4010028D50100BC
:10093000F8D40100F4D4010060D501008CD5010089
:10094000C0D50100F4D5010028D60100F0630020D5
:10095000EC63002010B505F057FC074B04461868FF
:1009600001F0DEFA18B9012C18BF022010BD012CCD
:100970000CBF0120032010BDFCEE0100064B1B68DC
:1009800043B130B4054C064D0FCD0FC42B68236026
:1009900030BC7047704700BFEC630020F06300205C
:1009A00004640020004870475CD601002DE9F04F38
:1009B000002497B003AD03940F46C5E90144C5E98F
:1009C00003446C6107F0DAF802214BF6132305901B
:1009D00011220846ADF80E308DF80D1006F044FCDB
:1009E000431C3AD01822294606464FF0FF3906F03C
:1009F00073FDDFF88080DFF880B0DFF880A00BE0C7
:100A000009A9504609F0B6FD0134642003F046F808
:100A1000142C4FF000091CD023463A46414609A841
:100A200009F054FE09A809F0E9FF02461820002346
:100A3000CDE9005009A9304606F0AEFD0028DFDC04
:100A4000584609F007FE0134642003F027F8142CFF
:100A5000E2D1484617B0BDE8F08F4FF4FA71024B6F
:100A6000024A034801F028FC6CD60100F0EE0100B8
:100A70008CD60100F8D701000CD8010000D8010085
:100A8000704700BFFFF7FCBF00BE704738B5164C7B
:100A90004FF0FF31206802F0A5FA012803D00021B1
:100AA0002068FFF7F1FF114B1A7802B138BD01221F
:100AB0001A70FFF7E7FF0E4D2B68013B2B60002BF0
:100AC000F4D0002320681A46194602F003F90128E1
:100AD000F2D000212068FFF7D7FF2B68013B2B6085
:100AE000002BEED138BD00BF04A6002008A60020D0
:100AF0000CA6002038B500230B4D0C4C01214FF4FF
:100B000080700B4A2B60237002F0A6F8094B186026
:100B100028B100F039F802F087FE002038BD014608
:100B2000FFF7B2FFF5E700BF0CA6002008A60020E3
:100B3000BCA5002004A600204FF4007330B4034D80
:100B4000034C05600C60136030BC70475CA500204E
:100B50005C9D00204FF4007330B4034D034C0560DE
:100B60000C60136030BC7047FC9C0020FC9400209B
:100B700010B50446FFF78AFF002000F03FF820463A
:100B8000BDE81040FFF7F8BC30B501240D480E4A0F
:100B900003680E4D85B01919CDE901250C4B016094
:100BA0004FF480720B490C48009402F0BDFD0B4BD2
:100BB000186008B105B030BD014605B0BDE8304051
:100BC000FFF762BF0CA60020F0B4012014A600209D
:100BD0007CEF010028D80100710B010010A6002055
:100BE00000BEFEE71EF0040F0CBFEFF30880EFF32A
:100BF0000980014908470000ED0C010000DF704743
:100C000001680868002800D1704701DF704700BF05
:100C1000164A1068164B1968EFF3098240B107B500
:100C2000FCF75EFEBDE807401EF0400F18BF06E06F
:100C30001EF0100F08BF22ED108A22E9F00FEFF32B
:100C40000B83744622E919000A604FF0100080F30C
:100C50001188BFF34F8FBFF36F8F02F05DFF4FF02E
:100C6000000080F3118800F005B8000088A600207D
:100C7000EC2901200D4801680A680BCA81F30B8832
:100C80009E460B49086038B104B5FCF7E1FDBDE8AC
:100C900004401EF0400F06D1B2E8F00F1EF0100F16
:100CA00008BFB2EC108A82F309887047EC29012052
:100CB00088A6002010B50B4CD4E90023501C43F14A
:100CC0000001C4E90001EFF31184102383F31188BC
:100CD00002F012FF18B14FF08052034B5A6084F3B8
:100CE000118810BD78A6002000ED00E008B58369EA
:100CF00013F8023C012B16D0022B0CD0CBB91846AE
:100D0000FCF7E6FD1A4B18601A6812B31868BDE8C4
:100D10000840FCF79DBDFCF793FD012820D1BDE8FC
:100D20000840FFF7A7BF0068FCF7B6FD012809D10E
:100D300008BD032BFCD040F2FD310E4B0E4A0F488C
:100D400001F0BAFA40F2D2310D4B0B4A0B4801F0D8
:100D5000B3FA40F2C3310B4B074A084801F0ACFA32
:100D60004FF47871064B044A044801F0A5FA00BF1D
:100D700088A600208CD80100ECF001004CD80100BE
:100D800074D8010034D80100F0B44FF080756FF0D2
:100D900043060024094F303122F0010240F80C7C58
:100DA00040F8446C40F8045C40F8203C40F8082CC3
:100DB00040F8481C40F84C4DF0BC7047E10B010076
:100DC00008B5EFF31181102383F311880A4A1368E1
:100DD0000133012B136000D008BD084A084B116095
:100DE0005B68C3F30803002BF6D040F2A941054B22
:100DF000054A064801F060FA84A6002080A600207B
:100E000000ED00E0A0D80100D8F001004CD80100AE
:100E100008B5094A13683BB1013B13601BB9074B86
:100E20001B6883F3118808BD40F2B241044B054AA8
:100E3000054801F041FA00BF84A6002080A60020EA
:100E4000E8D80100C4F001004CD8010080B3194B70
:100E50009A8990B2120409D4BFF34F8F30BFBFF309
:100E60006F8F62B6BFF36F8F72B670474AF202514E
:100E70004FF0000CB3F8FE23A3F8FE1392B242F435
:100E80002542A3F80CC0A3F8FE23BFF34F8F30BF59
:100E9000BFF36F8F62B6BFF36F8F72B6B3F8FE23E6
:100EA000A3F8FE1392B242F425429881A3F8FE23E0
:100EB000704700BF00E0014008B572B602F0FEFCCA
:100EC0000120FFF7C3FF62B6BDE8084002F0FEBC98
:100ED0000D4B0E4A1B68A2FB03235B09013BB3F1D8
:100EE000807F00D370474FF0E0224FF0F00C0020DD
:100EF000072110B4064C536184F823C0906111613E
:100F00005DF8044B704700BF80A800201F85EB519F
:100F100000ED00E0F02208B50B4B83F82220FFF72C
:100F2000D7FF0A4A536B43F04043536362B6BFF3A3
:100F30006F8FEFF3148C2CF0040C8CF31488BFF338
:100F40006F8F02DF00BEFDE700ED00E000EF00E084
:100F500008B5EFF30383103B1A0604D50E4BDB688C
:100F60005B0511D408BD03F0FF0202F1604303F5F5
:100F7000614393F800331B09F0D140F21461074B31
:100F8000074A084801F098F940F22661064B044AE6
:100F9000044801F091F900BF00ED00E0FCD8010029
:100FA000A4F001004CD8010034D9010008B5054B6C
:100FB0001B689A68186893699847B0FA80F04009EE
:100FC00008BD00BF1460002070B516468A6A0D4641
:100FD0003B2A02D83C231A468B620A4B1B6899684D
:100FE00018684B69696A9847B0FA80F4012E4FEA95
:100FF000541401D0204670BD284603F0E9FA20467B
:1010000070BD00BF14600020F0B5254C83B023688C
:10101000002B3ED0234A596810604A78012A14D028
:101020009A6818681268904723689A6870B91868B7
:10103000936998471C4D04462B6803B31B4E3368D5
:101040009BB14CB1002003B0F0BDFEE70E28EED0FE
:10105000186853689847F5E72B68002BF2D0306882
:10106000003818BF012003B0F0BD04274FF4007210
:101070000F49019600970F4802F0A4FBE1E7042610
:101080004FF400720C49019500960C4802F09AFB4F
:10109000D4E76E210A4B0B4A0B4801F00DF900BF53
:1010A00014600020A0A60020A8A60020A4A600206E
:1010B000CCD90100CD100100BCD9010031110100D3
:1010C00060D9010000F1010084D901002DE9F0414F
:1010D00040F6A1750023A846134F82B03A68134E1C
:1010E00001928DF800304FF47A7002F0D7FC33682B
:1010F0009A681868936998478542044604D028B9CD
:101100003B68186A04F0ACFC2546ECE7404503D088
:1011100041F288339842E6D10021684604F090FD00
:101120000128E0D12546DEE7A0A6002014600020BB
:101130002DE9F0410026DFF880801E4F84B005E0E5
:10114000B5F57A6F24D0204603F042FA00214FF023
:10115000FF32084602F03AFF002140F2EA500196C1
:1011600003F05CFA04460028F0D0D8F8003001AA59
:10117000996818688B68616A9847019B05463868CA
:10118000616AC4E90A3005F099FF2063002DD7D1C8
:101190000028D8D0606A04F0D5FD01280346D2D1DA
:1011A000002102A88DF80830039404F049FD0128BD
:1011B000C9D1D1E7A0A6002014600020002100B50D
:1011C000037983B013F0050F01910FD0094B186814
:1011D00060B101AA02F03EFF019B3BB14FF080528B
:1011E000054B5A60BFF34F8FBFF36F8F03B05DF8AD
:1011F00004FB00BFA8A6002000ED00E070B5054686
:101200000D4E0C462B46112130460C4A09F02AFAA5
:1012100000220B4B0B49E3600B4B2046C4E9015104
:101220006261A261E261226262622660236105F06E
:101230000BFE204670BD00BF8CA60020E0D9010047
:10124000C90F010009100100AD0F010038B50546B6
:1012500008F038FC044608F035FC0346A4B244EA22
:1012600003442C60012038BD2DE9F84F0388CBB131
:1012700007464FF000084FF0010ADFF89C90002469
:10128000244D4FEAC8067B6835F8022B99198988E6
:10129000914209D00134032CF5D13B8808F10108B3
:1012A0004345ECD8BDE8F88F9B59D9F8D02303F01B
:1012B000B853B3F1807F0AFA04F315D012F0040F8B
:1012C0005FFA83FBE6D099F8BB241342E2D00120F9
:1012D00001F08CF899F8BB34012023EA0B0389F85C
:1012E000BB3401F053F8D5E712F0040F5FFA83FB2B
:1012F000D0D099F8BB241342CCD1012001F076F86C
:1013000099F8BB3401204BEA030B89F8BBB401F018
:101310003DF8BFE724F1010000E00140F8B50646C2
:10132000FFF7A2FFEFF31082012383F31088234F0E
:101330003B681BB92249CB704023CB703B6801331B
:101340003B6082F31088338823B300211D4D08E0F1
:101350001B01134445F82340328801318BB29A4275
:1013600018D9736853F8314003EBC1029288E00347
:101370004FEA1223D2B2EBD502EB031055F820E06E
:1013800024F4803C2EF4803E45F820E01B0145F813
:1013900020C0DEE7EFF31082012383F310883B685F
:1013A00013B13B68013B3B603B681BB9802004499B
:1013B000CB70C87082F31088F8BD00BFF0A6002083
:1013C000000D08400008084008B5034B03600846BC
:1013D000FFF7A4FF002008BD54524F5000220346DF
:1013E0001046C3E90122DA601A741A60704700BF20
:1013F000D0E901239268002A1BDD0621013A196019
:10140000FCD142689268002A13DD0721013A196075
:10141000FCD142689268002A0BDD0721013A19606D
:10142000FCD142689268002A03DD0621013A196066
:10143000FCD17047D0E901239268002A1BDD02210C
:10144000013A1960FCD142689268002A13DD032139
:10145000013A1960FCD142689268002A0BDD032131
:10146000013A1960FCD142689268002A03DD02212A
:10147000013A1960FCD17047D0E901329B68002B1A
:101480001ADD0021013B1160FCD143689B68002BF1
:1014900012DD0121013B1160FCD143689B68002BE8
:1014A0000ADD0121013B1160FCD1416889680029F6
:1014B00002DD01391360FCD1704700BFF8B520246C
:1014C0000F461546013CA4B2FFF792FF002CF9D15C
:1014D0004368BC005B780E2644EAC31444F4C0445D
:1014E00005E0FFF7A7FF013E4FEA440407D02304BD
:1014F000F7D5FFF77DFF013E4FEA4404F7D1FFF730
:10150000BBFF0124FFF7B8FFD0E901314FF0100C09
:1015100032469B68002B4FEA460636DD013B0A60E7
:10152000FCD143680F689B68C7F3C00E002B4EEADE
:10153000060612DD013B0C60FCD143689B68002B62
:101540000BDD013B0C60FCD143689B68002B04DD84
:10155000013B0A60FCD143689B68BCF1010CD9D106
:10156000D917890041EA93719B00012B71F10002A8
:10157000806807DB6246013B61F1000153EA010428
:101580000260F8D12E600020F8BD0F68C7F3C007D5
:101590003E43E2E710B5044682B001AA0121FFF7FD
:1015A0008DFF0121204601AAFFF788FF019B41F230
:1015B000883013F0040F18BF002002B010BD00BF28
:1015C0002DE9F041044682B00F469046012101AA60
:1015D0001E46FFF773FF0121204601AAFFF76EFFA9
:1015E000019845073FD5E568690506D5D8F800306C
:1015F00043F00203C8F80030E5682A0521D48306C9
:1016000027D5204601AA0521FFF758FF019A550565
:1016100044BF02233360140503D5336843F001034C
:101620003360500602F0800102F4807316D5F9B1E0
:10163000002B14BF0423032300203B6002B0BDE84D
:10164000F081D8F8003043F00103C8F80030830679
:10165000D7D441F2893002B0BDE8F0810029E7D14A
:101660005BB993060BD441F2883002B0BDE8F0813B
:10167000002B14BF04230223DEE70423DCE701234D
:10168000DAE700BFF8B520240E461546013CA4B2A7
:10169000FFF7AEFE002CF9D14368B4005B780E274B
:1016A00044EAC31444F4A04405E0FFF7C3FE013F3D
:1016B0004FEA440407D02204F7D5FFF799FE013F13
:1016C0004FEA4404F7D1FFF793FE1024FFF7B2FE70
:1016D00005E0FFF7AFFE013C4FEA450507D02B04BC
:1016E000F7D5FFF785FE013C4FEA4505F7D1D0E974
:1016F00001319868C2178300920042EA9072012B70
:1017000072F1000006DB013B62F1000253EA0200C5
:101710000C60F8D10020F8BD40F2E11340F6E15230
:1017200030B54568044695F80DC083B0BCF1000F94
:1017300008BF1A460421C260FFF7A4FF4FF490527D
:1017400000212046FFF79EFF042120460DEB0102F9
:10175000FFF7B4FE002003B030BD00BFF0B50E4669
:10176000002496F800C0184B4FEA8C2C6344C0E963
:101770000163C460B37B4FF0010EB3FA83F3134FE0
:101780005B091B013B704FF40042214683B080F897
:1017900010E00546FFF776FF01E0A34211D90021D2
:1017A000284601AAFFF78AFE0198736810F40040EA
:1017B00004F10104F1D19C4203D2054B2B6003B02C
:1017C000F0BD142003B0F0BD20411140000D0840D1
:1017D00059485052012370B54FF400420E4682B072
:1017E0000021037405460024FFF74CFF01E0A342EB
:1017F00010D90021284601AAFFF760FE01987368FE
:1018000010F4004004F10104F1D19C4228BF1420DF
:1018100002B070BD142002B070BD00BF83681A68AA
:10182000002A15DB996082680B4B11680B4013602E
:101830008268136843F00043136082684369D2688A
:1018400082601A69012A01D001221A6100207047C2
:1018500040F6A670704700BF60FCFFC74369D3F82D
:10186000D83073B14268103B506B127D406898428B
:1018700009D89A682AB11B68002B02DB00200A6095
:1018800070472220704702F18053013B00EB0313A5
:10189000EFE700BF84460020CCE90832CCF81C10EA
:1018A000704700BFF8B54368044693F920300669D5
:1018B000002B476910DB01215A0903F01F0301FACD
:1018C00003F31A49203241F82230BFF34F8FBFF3A0
:1018D0006F8F436893F920300025154A42F8235052
:1018E0006368DB6A9A68186853689847B36965F358
:1018F0008203B3613B6B65F396533B633560A5612F
:10190000EFF31080012383F310886168094A097896
:10191000C1F10F018B4051680B435360536880F352
:101920001088C4E900552846F8BD00BF00E100E07A
:10193000F4A6002000400840F8B543689D698DB1C9
:101940005A7807465E7D72B166B10024B60001E0A8
:101950007B689D6928590021DA69043408F0D8FFB2
:10196000A642F5D1F8BD1A7D1644EDE72DE9F04702
:101970005B4F0368BB4200F0AE804FF000090446A5
:101980000D460E78D1F834A0B602A6F1BF26A6F512
:101990006E0606610B78416003F1401303F588532E
:1019A0004FEA0328C0E905894A7DDAF80000494674
:1019B000120108F0ADFF636849461A7DDAF80400A9
:1019C000120108F0A5FF2046FFF7B6FFAB6AE361FE
:1019D0002B6BC4E90893EFF310804FF0010989F3F2
:1019E000108863683F4A1B785168C3F10F0309FAF6
:1019F00003F321EA03035360536880F3108862699C
:101A000039491368394843EA090313600B684946AA
:101A1000B0FBF3F0484400F057FC636962689168DA
:101A20009A6F61F305029A67626851799A6F61F360
:101A300011429A676368DB6A9A68D3E90001126809
:101A40009047054648B141F2883240F6A57390426E
:101A500008BF1D462846BDE8F0876368DB6A9A68C0
:101A600018685369984737233361214B2148C8F8D8
:101A70002830D8F8303043F48003C8F8303062683A
:101A800092F92030526A03F160411201D2B201F59D
:101A9000614181F80023184A40F8234003F1C00156
:101AA00052F8210065F3104042F8210052F821203D
:101AB000BFF35F8F5A09920003F01F0302F16042E7
:101AC00009FA03F302F56142C2F88031136027601E
:101AD0002846BDE8F0870E252846BDE8F08700BF00
:101AE000454854450040084080A8002000E1F50525
:101AF0009F0FFF47F4A6002000600040F8B5C37EAA
:101B0000012B34D1036904461B689B052CD447681C
:101B1000C36878780E46154658B91868002829DB3E
:101B2000F869824226D8986808F05BFF6268E3682B
:101B30005078012804BF9E60E368AAB2DA80E268A8
:101B40000020136823F040531360E268136843F0E9
:101B500030431360E2686369D268E2609A68012AE0
:101B60001CBF01229A60F8BD40F6A270F8BD40F695
:101B7000A170F8BD40F6A370F8BD00BFC37E012B75
:101B80001ED103691B689B0517D483681A68002A55
:101B90000BDB19680C4A0A401A608268136843F02C
:101BA000004313608368DB688360436900201A691F
:101BB000012A1CBF01221A61704740F6A2707047CB
:101BC00040F6A170704700BF60FCFFC72DE9F041EF
:101BD00000240546406884B0C06ACDE901448768A6
:101BE00003940E46D7F81880006803AB02AA01A937
:101BF0002C696F69C04738B9019B013B032B03D89F
:101C0000DFE803F02F444F0740F6A17004B0BDE8B1
:101C1000F081236843F002032360236843F0040348
:101C2000236046BB6B681B79012B45D0236823F4E6
:101C300080332360236823F4003323606A682368B9
:101C4000D27862F3000301222360236843F040034B
:101C50002360236843F0200323603A6104B0BDE8A9
:101C6000F081236823F002032360236823F0040338
:101C70002360002EDAD0236843F4007323602368C6
:101C800043F04003236004B0BDE8F081236843F0D3
:101C900002032360236823F004032360002EC1D0D5
:101CA000E9E7236823F002032360236843F0040379
:101CB0002360002EBAD0DEE74FF6FF720023626584
:101CC00063663B672268194942F400222260029A47
:101CD00001F1010C9600039A06F00C0602F00302D3
:101CE000164301E0082BA1D011F823201CF823E0B3
:101CF0003240724501EB830803F10103F2D198F8F9
:101D0000023098F80320012B0AD1236843F4803372
:101D10002360012A8ED1236843F4003323608DE7CA
:101D2000236823F480332360F3E700BF7CF10100D4
:101D3000F0B5066A87B005460F4601AC06B3A44667
:101D4000B646BEE80F00ACE80F00DEF80030CCF875
:101D5000003037716B6830461B7833606B6A3361D3
:101D6000EB6998472B6A4BB19C46A646BEE80F002C
:101D7000ACE80F00DEF80030CCF8003007B0F0BD62
:101D80002646E6E72DE9F8430D4601210446406961
:101D900016460268DFF884C10A43276902605E4B79
:101DA000DCF80000B3FBF0F0084400F08DFA636942
:101DB000626891689A6F61F305029A676268517967
:101DC0009A6F61F311429A67AB882A685BBA12BABC
:101DD0009BB2C7F8C020C7F8C8306268537D556B06
:101DE000002B00F095804FF0000C4FF00049614649
:101DF000E0462F68928B07EB0113DA80A3F804808A
:101E00002A684FEA011E0EF110000244DA6062688F
:101E10000131906918B150F80C0047F80E909860A5
:101E200062680CF1040C507D8142E2D357F80E2019
:101E300042F0804247F80E202A68DA60A2606268A9
:101E4000127D3AB300214FF0010C0F460AE082697F
:101E50001AB1407D704452F820209A606268127D69
:101E6000914217D26A68080102EB0113A3F806C079
:101E70009F8017506A6810301044D86060688E46A2
:101E800042780131002AE2D000229A606268127D15
:101E90009142E7D31A6842F080421A606A68DA60B9
:101EA000E260012ED4E9042329D0196B41F48001AA
:101EB0001963196B41F480211963196B41F4001106
:101EC0001963142140F2EE50906011656168C96891
:101ED000D1661A6842F040021A60A2681A62E2688B
:101EE0009A616268927802B180229A63002040F27F
:101EF0000F710122986419659A65BDE8F8839169AC
:101F000041F002019161196B41F480011963D8E736
:101F1000137D002B96D1C4E700E1F50580A80020D1
:101F2000F0B5837E4668012B0446776B83B01CD1E5
:101F30000021C369817613B1FFF7FAFE6668237E3C
:101F400020468DF80730FFF7ADFC054610B1284656
:101F500003B0F0BD31462046FFF708FD05460028D6
:101F6000F5D19DF8073066682376F36A9A68186899
:101F7000D369984741F288339842237E45D053BBBA
:101F8000012323760026636866765A7D31463868D9
:101F9000120108F0BDFC78680127636831461A7D9C
:101FA000120108F0B5FC2046FFF7C6FC6368E7762F
:101FB000196932462046FFF7E5FE31462046FFF715
:101FC00005FE054658BBE369002BC0D039462046C4
:101FD000FFF7AEFEBBE70025637E022BD2D0012BBC
:101FE000B5D1002322696376116863F3861111600D
:101FF000116863F345111160E269E376002AA6D007
:1020000002212046FFF794FEA1E7012B02D040F603
:10201000A175E1E7002340F6A1752376E1E70223ED
:10202000E676637693E700BF38B5C57E012D03D011
:1020300040F6A175284638BD044643682A4619690A
:10204000FFF7A0FE29462046FFF7C0FD0546002801
:10205000EED16368DB6A9A681868D369984741F2E1
:1020600088339842E4D0284638BD00BF8C46C17EF4
:10207000012945D1F8B5036904461B689D052DD497
:102080001746DFF8ACE0A3681A68002A3BDB6568F6
:10209000AE7816B91A68100638D4186810F00060C7
:1020A00022D0E57E012D1CD122691268920515D43B
:1020B0001A68002A0BDB1A6802EA0E021A60A2688C
:1020C000136843F000431360A368DB68A360626990
:1020D00010690128D8D01161A368D5E740F6A27035
:1020E000F8BD40F6A170F8BD9E8899686B7913FA27
:1020F00086F646B16B789BB1CCF800103E60F8BD17
:1021000040F6A17070474FF47A60F8BD2046FFF7A3
:1021100035FD034640F6A470002B18BF1846F8BDE5
:102120006046324608F05DFC2046FFF727FDE5E7F4
:1021300060FCFFC72DE9F047EFF30383294A103B0A
:102140005BB252F82360D6E9042317699D6A71686F
:1021500015F48008D1F8349004D0B90744BF0121A8
:10216000B17617619D62F369F3B11F4C04F1300A37
:1021700002E0083454450CD0D9F8083062682B408E
:102180001342F6D0217830460834FFF7D1FD54458C
:10219000F2D1B8F1000F07D099F80C303B409A0704
:1021A00017D413F09F0F0FD1EFF30383103B0F4AA7
:1021B0005BB2C03352F8231021F4803142F823106F
:1021C00052F82330BDE8F08709213046FFF7B0FD13
:1021D000EAE700213046FFF7ABFD99F80C303B40B1
:1021E000DFE700BFF4A600204CF1010000600040D2
:1021F000074A084B006892F826C0126A586153F8E3
:102200002C300549C2F30262D3400B60704700BF17
:1022100000E001401862002080A80020064B07491A
:1022200093F826001A6A51F82030C2F3026204497A
:10223000D3400B60704700BF00E0014018620020EF
:1022400080A800204FF4004310B51249124C134AE5
:102250001348C4E9001202F1376202F5D83211497D
:10226000E06011486261A3602361FBF7D1FA0F4B74
:102270000F4993F826001A6AE368C2F3026203EB7F
:102280008303DB009B08A36154F82030D3400B602C
:1022900010BD00BF002D31011862002000127A002D
:1022A00000366E01ACA60020F121010000E00140E3
:1022B00080A80020704700BF00BEFEE7A0F101002B
:1022C0000028FBD1704700BF4FF47A7310B400FBB5
:1022D00001F1114C114A2468B2FBF4F2A1FB030492
:1022E0003CB9B0FBF2F0800860B15DF8044BFFF739
:1022F000E5BF9200B1FBF2F1A1FB03132BB9084635
:102300000028F2D15DF8044B70474FF0FF3C5DF8B8
:10231000044B6046FFF7D2BF80A8002000CA9A3B5A
:1023200070B500240B4B0C4EB3F82021B3F840518C
:10233000ADB2154025FA04F3DB0704D556F8243076
:10234000E0B203B198470134102CF3D1014BA3F84C
:10235000305170BD00600040B0A600200022094B43
:1023600010B4094C03F1C00C33F8021F02F1C00095
:10237000013209B144F820106345F5D15DF8044BF2
:10238000704700BFE2EF010000600040EFF31081F2
:10239000012383F31088124B33F8102092B22AB134
:1023A00033F81020013A92B223F8102033F810309D
:1023B0009BB293B910B40B4A0B4CB2F8FE3334F80D
:1023C00010009BB243F4254323EA0003A2F8FE3336
:1023D00081F310885DF8044B704781F310887047D3
:1023E00074A8002000E00140C4F1010030B4EFF314
:1023F0001081012383F310880E4A32F810309BB20B
:102400006BB90D4C0D4DB4F8FE3335F810C09BB2CE
:1024100043EA0C0343F425439BB2A4F8FE3332F89D
:10242000103001339BB222F8103081F3108830BC99
:10243000704700BF74A8002000E00140C4F1010013
:1024400008B50C4A0346106840B103330A4923F02B
:10245000030303448B4205D8136008BD07490846AF
:102460001160F2E708F0A6FA0C2203461A604FF05A
:10247000FF3008BD7CA80020F0A40120F0840120DA
:1024800000BE704708B500F003F8FEF733FBFEE727
:102490004FF470021B4B70B50020C3F88820FEF784
:1024A0006FF9FFF7CFFE0120FEF76AF9164B1B68A4
:1024B000A3F5805383F30A881448154A0021121AA1
:1024C00008F026FA1348144A1449121A08F089FA37
:1024D000134D144B5B1B002B07DD00249E1055F899
:1024E000043B01349847A642F9DCFFF797FE02202F
:1024F000FEF746F9FFF732FFBDE870400020FFF716
:10250000D9BE00BF00ED00E00000010040620020E5
:10251000EC8401200060002018620020E0FB010034
:10252000106200201462002010B4154B1A461B687C
:102530008342FBD35468416802EB040C604514D01D
:102540004418A34206D00360824218BF10605DF8B1
:10255000044B70470B4C2468A342F4D05B680B44D7
:10256000436013681B680360EEE721445018834200
:102570005160ECD1034800688342E8D01046EDE793
:1025800098A8002094A80020F8B5044601F096F918
:102590003F480368002B54D0631E0A334CD814F014
:1025A000070304F108023FD1002A45DB394F3E689A
:1025B000964241D3384B19461C6803E0236823B187
:1025C00021461C4663689342F8D30368A34233D084
:1025D00023680D680B6063680835991A102907D9BC
:1025E000A01843074ED141606260FFF79DFF63680A
:1025F0002A4AF61A116843F000438E424FF0000158
:1026000038BF1660264A6360136821600133136087
:102610003E6001F05BF96B0711D04FF49771214BCD
:10262000214A2248FFF748FEA3F10901914203D352
:102630001034E21A002AB9DC01F048F900252846D6
:10264000F8BD1B4A510719D0D11D21F0070102F531
:102650000042531A0A4600250B44083B23F00703A7
:102660000D4E9A1AC6E900150360C3E90055C1E989
:1026700000320A49074B0A601A608DE711464FF491
:102680000043E8E7EE210B4B074A0848FFF714FE2A
:1026900094A8002090A8002098A800208CA80020D2
:1026A00088A800205CDA0100D8F101001CDA0100E2
:1026B000A0A80020E8D9010020B338B550F8042CB8
:1026C0000446002AA0F1080524DA50F8081CD1B904
:1026D00022F0004240F8042C083A08F019F901F001
:1026E000EDF8104A54F8043C116828460B44136076
:1026F000FFF71AFF0C4A136801331360BDE8384036
:1027000001F0E4B870474FF4A171084B084A09483A
:10271000FFF7D2FD40F24111074B054A0548FFF78C
:10272000CBFD00BF90A8002084A800200CDB010096
:10273000CCF101001CDA010098DA010038B51C2048
:10274000FFF722FF044628B1002540F8045B00F0A3
:1027500027F92576204638BD2DE9F843089F002843
:1027600000F08280B1F1807F0C4676D200296DD0D6
:1027700091469846064601F00DFCE0B9002F7AD14B
:1027800001F09CF83568B8F1000F07D034EA050372
:1027900006D001F09BF82846BDE8F8832C42F8D01B
:1027A000B9F1000FF5D025EA0404346001F08EF889
:1027B0002846BDE8F88301F081F83568B8F1000FCC
:1027C00025D034EA0503EBD0002FE2D0B9F10001A7
:1027D00018BF0121090641F080613A462143301DAE
:1027E00001F000FA01F072F838B94FF08052254B31
:1027F0005A60BFF34F8FBFF36F8F01F0DBFB830194
:1028000005460ED525F07F452846BDE8F8832C42C5
:10281000C6D1002FBDD0B9F1000118BF01210906B2
:10282000DBE7FEF7CDFA3568B8F1000F0AD12C428C
:1028300005D0B9F1000F02D025EA04043460FEF798
:10284000E7FADFE734EA0503F9D1F2E740F23D1198
:102850000D4B0E4A0E48FFF72FFD4FF49E710D4BA6
:102860000A4A0B48FFF728FD40F23B110A4B074A82
:102870000748FFF721FD4FF4A071084B034A0448B5
:10288000FFF71AFD00ED00E0C4DB010010F20100CB
:102890005CDB01009CDB010090DB0100DCDB010064
:1028A0002DE9F04190B3B1F1807F0D4635D2064657
:1028B00000F10C0801F002F83368346945EA0301BD
:1028C000A04531601CD000270AE03DB1DB0141F09A
:1028D000007148BF174301F06BFA3168A0450DD075
:1028E00020460368646823F07F4213F0806F02EA99
:1028F0000105EAD0AA42E9D0A045F1D121EA0701B9
:10290000316000F0E3FF3068BDE8F08140F2132150
:10291000054B064A0648FFF7CFFC4FF40571054BFF
:10292000024A0348FFF7C8FC90DB0100FCF10100FC
:102930005CDB010030DC010038B508B3044600F070
:10294000BDFF63685BB104F10C052069A84210D09B
:102950004FF0007101F02CFA6368002BF5D100F004
:10296000B5FF237E03B138BD2046BDE83840FFF7F0
:10297000A3BE40F27721064B064A0748FFF79CFCAE
:1029800040F26B21054B034A0348FFF795FC00BF5B
:1029900060DC0100E8F101005CDB010054DC0100B7
:1029A0004FF0FF31002200F10803C0E90131C0E916
:1029B00003330260704700BF00230361704700BF0C
:1029C00043684B609A688A60516099600861036847
:1029D00001330360704700BF30B40D686B1C10D02A
:1029E00000F108031C465B681A68AA42FAD94B60DA
:1029F00099608C6061600861036830BC01330360DA
:102A0000704704696368F2E70369D0E901128A60DC
:102A1000416851605A68824204BF82685A6000224D
:102A200002611A68013A1A601868704770B5164654
:102A3000026C0446856B0AB386B9406807F0D1FF83
:102A40006368216CA2680B449342636005F1010541
:102A500015D32368A5636360002070BDC06807F0CC
:102A6000C0FF226CE36851429B1A2268E3609342E4
:102A700002D2A3680B44E360022E03D00135A563A4
:102A8000002070BD012D38BF0125F8E770B505465F
:102A9000FEF796F995F845305CB2002C14DD05F18F
:102AA000240603E0631EDAB25CB26AB16B6A5BB102
:102AB000304601F005F90028F4D001F05FFA631EFA
:102AC000DAB25CB2002AF1D1FF2385F84530FEF777
:102AD0009FF9FEF775F995F844305CB2002C14DDCF
:102AE00005F1100603E0631EDAB25CB26AB12B692D
:102AF0005BB1304601F0E4F80028F4D001F03EFA72
:102B0000631EDAB25CB2002AF1D1FF2385F84430AB
:102B1000BDE87040FEF77CB970B5002848D0C56BA1
:102B20000446002D3DD0026CA2FB0525002D38D1B6
:102B30000E46FEF745F9D4E90F30FF2100FB03F301
:102B40002268181A626013440244A563C4E9023281
:102B500084F8441084F84510BEB923691BB9FEF708
:102B600057F9012070BD04F1100001F0A9F8002808
:102B7000F5D04FF08052124B5A60BFF34F8FBFF326
:102B80006F8FFEF745F9012070BD04F11000FFF7CB
:102B900007FF04F12400FFF703FFFEF739F90120D6
:102BA00070BD40F26311074B074A0848FFF784FBEA
:102BB0004FF49771064B044A0448FFF77DFB00BFB2
:102BC00000ED00E004DD0100D8F20100D0DC0100DE
:102BD000FCDC010070B582B033B30646E8B10D46A7
:102BE0001C4692B1C9B148230193019B482B22D1C5
:102BF00001212046C4E90F65226084F84610019B3C
:102C0000FFF78AFF204602B070BD31B94823019317
:102C1000019B482B0FD12246EAE74FF4D071094BB4
:102C2000094A0A48FFF748FB40F27711084B064A69
:102C30000648FFF741FB40F28911064B024A034860
:102C4000FFF73AFB54DD0100BCF20100D0DC0100CB
:102C500028DD010038DD010030B583B0C0B1884205
:102C60000D4615D314460AB348230193019B482B04
:102C700015D1012100232260D063204684F846103C
:102C80002364019AFFF748FF2046A56303B030BDD7
:102C900040F24731094B0A4A0A48FFF70DFB40F260
:102CA0008911094B094A0748FFF706FB40F27711E3
:102CB000074B064A0348FFF7FFFA00BF60DD01003B
:102CC00098F20100D0DC010038DD0100BCF2010007
:102CD00028DD01002DE9F04184B00192002800F0C8
:102CE000AF8004460F461E46002900F08B80022E5E
:102CF00003D1E36B012B40F09C8001F04BF90028DD
:102D000067D0FEF75DF8A26BE36B9A4253D3022EB5
:102D100051D00020DFF8448105460DE0FEF778F839
:102D20002046FFF7B3FE00F0D1FDFEF749F8A26B95
:102D3000E36B01209A423ED3019B002B6DD0B0B3D0
:102D4000FEF766F800F0BAFDFEF73AF894F8443062
:102D5000FF2B08BF84F8445094F84530FF2B08BF80
:102D600084F84550FEF754F802A801A901F0BEF816
:102D7000002858D1FEF724F8A26BE36B9A42CDD11C
:102D8000FEF746F8019904F1100000F00DFF20460F
:102D9000FFF77CFE00F09AFD0028C6D14FF080536B
:102DA000C8F80430BFF34F8FBFF36F8FBDE702A8A1
:102DB00001F090F8C4E7324639462046FFF736FE68
:102DC000636A83B9A8B9FEF723F8012004B0BDE80F
:102DD000F081019B002B94D040F282311C4B1D4AA4
:102DE0001D48FFF769FA04F1240000F069FF00288C
:102DF000E9D04FF08052194B5A60BFF34F8FBFF3A9
:102E00006F8FE0E7036C002B3FF471AF40F27E312F
:102E1000134B104A1048FFF74FFAFDF7F9FF002057
:102E200004B0BDE8F0812046FFF730FE00F04EFD13
:102E3000F5E740F27F310B4B064A0748FFF73CFAB3
:102E400040F27D31084B034A0348FFF735FA00BFD3
:102E5000DCDB010084F20100D0DC010000ED00E0C9
:102E600068DD0100C0DD0100FCDC0100F0B585B0CB
:102E70000192002800F0A38004460E4600296ED07F
:102E800001F088F8002857D0FDF79AFFA56B002DB8
:102E90006FD1019B002B35D002A801F01BF82F4603
:102EA000FDF7B6FF00F00AFDFDF78AFF94F8443005
:102EB000FF2B08BF84F8447094F84530FF2B08BFFF
:102EC00084F84570FDF7A4FF01A902A801F00EF8EF
:102ED000E8B9FDF775FFA36B33BBFDF799FF0199C7
:102EE00004F1240000F060FE2046FFF7CFFD00F063
:102EF000EDFC58B3FDF764FFA56B002D39D1019BA4
:102F0000002BCDD1FDF784FF002005B0F0BD204699
:102F1000FFF7BCFD00F0DAFCFDF752FFA36B002BBE
:102F2000F0D0FDF775FFE5E7FDF772FF2046FFF7EC
:102F3000ADFD00F0CBFCDDE7019B002BA4D040F2FF
:102F4000A551224B224A2348FFF7B6F94FF0805291
:102F5000214B5A60BFF34F8FBFF36F8FCAE7036CEB
:102F6000002B8DD04FF4B4611C4B194A1948FFF760
:102F7000A3F9226C5AB1E168A36811449942E16057
:102F800028BF2168304628BFE16007F02AFD013DD7
:102F9000A563236923B9FDF73BFF012005B0F0BD10
:102FA00004F1100000F08CFE0028F4D04FF08052A5
:102FB000094B5A60BFF34F8FBFF36F8FEBE740F2BF
:102FC0009C51074B024A0348FFF776F9DCDB01000E
:102FD00074F20100D0DC010000ED00E09CDE010095
:102FE00090DE010070B584B00191002800F091805E
:102FF000036C0446002B40F0858000F0CBFF0028D6
:1030000055D0FDF7DDFEA56B002D63D1019BA3B369
:1030100002A800F05FFF2E46FDF7FAFE00F04EFC1E
:10302000FDF7CEFE94F84430FF2B08BF84F84460CF
:1030300094F84530FF2B08BF84F84560FDF7E8FEA3
:1030400001A902A800F052FFE0B9FDF7B9FEA36B99
:103050002BBBFDF7DDFE019904F1240000F0A4FD77
:103060002046FFF713FD00F031FC50B3FDF7A8FE3A
:10307000A56B7DBB019B002BCED1FDF7C9FE0020C7
:1030800004B070BD2046FFF701FD00F01FFCFDF706
:1030900097FEA36B002BF0D0FDF7BAFEE6E7FDF735
:1030A000B7FE2046FFF7F2FC00F010FCDEE7019BC4
:1030B000002BA6D040F23761194B1A4A1A48FFF785
:1030C000FBF84FF08052194B5A60BFF34F8FBFF39C
:1030D0006F8FCBE7013DA563236923B9FDF798FE08
:1030E000012004B070BD04F1100000F0E9FD0028DB
:1030F000F4D04FF080520D4B5A60BFF34F8FBFF3A7
:103100006F8FEBE740F23261094B064A0648FFF742
:10311000D3F840F22E61074B024A0348FFF7CCF880
:10312000DCDB010060F20100D0DC010000ED00E01A
:1031300010DE010090DE010010B538B10446FDF745
:103140003FFEA46BFDF764FE204610BD40F6230150
:10315000024B034A0348FFF7AFF800BFC8DC010089
:1031600048F20100D0DC010010B5D8B10023114CA9
:1031700054F83320D900904206D001330A2BF7D1FE
:1031800090F8463053B110BD002300220A4C214470
:10319000C1E9002390F84630002BF4D1BDE810407F
:1031A000FFF78ABA4FF40561044B054A0548FFF75B
:1031B00083F800BFA4280120A0280120FCDC010026
:1031C00038F20100D0DC010070B500B3D9B10024A1
:1031D000124D23462A4604E001330A2B02F108026D
:1031E0000ED0566886420FD0002CF5D155F83360CA
:1031F0000133002E08BF14460A2B02F10802F0D159
:103200000CB1C4E9001070BD05EBC304F9E740F64A
:103210001531034B034A0448FFF74EF8A02801205C
:10322000C8DC010024F20100D0DC010070B50446C6
:103230000E461546FDF7C4FD94F84430FF2B04BF3D
:10324000002384F8443094F84530FF2B04BF00235A
:1032500084F84530FDF7DCFDA36B23B12046BDE8C3
:103260007040FFF713BC04F124002A46314600F0F9
:10327000F5FC2046BDE87040FFF708BC2DE9F041A1
:103280000446FDF79DFD394A394E1368013313603A
:103290003368002B3DD0374FE36A3A68002A31D0BB
:1032A000354D364936480A6801320A6002689A424A
:1032B00038BF036003EB830305EB83035B68221DC8
:1032C000A3609968E1604A609A60E36A03EB830354
:1032D00005EB830262619B00EA580132EA50FDF778
:1032E00097FD3B6863B13268E36AD26A9A4207D2BB
:1032F0004FF08052234B5A60BFF34F8FBFF36F8F55
:10330000BDE8F08132681C4DD26A9A4298BF3460A1
:10331000C7E734601368012B03D0E36A164D154FDD
:10332000BFE7154D2F4605F1640838461437FFF7FF
:1033300037FBB845F9D1DFF86880134F4046FFF7F7
:103340002FFB3846FFF72CFB1048FFF729FB1048EE
:10335000FFF726FB0F48FFF723FB0F4BC3F8008056
:103360000E4B1F60E36A034F9BE700BF1429012047
:10337000EC2901200829012088290120F8280120B2
:103380000C29012000ED00E06029012044290120E2
:1033900030290120182901205C2901205829012009
:1033A00074290120F8B50446214B224E1D6830686F
:1033B0000F460430FFF728FB631C17D033682D1924
:1033C0005D600BD21C4B186831680431FFF704FBB9
:1033D0001A4B1A68AA4200D91D60F8BD184B18682C
:1033E0003168BDE8F8400431FFF7F6BA6FB93368C9
:1033F0006A1E5A60002DF1D10F4B186831680431F4
:10340000FFF7EAFA0D4B1B68F8BD0E4B31685A689E
:1034100037688A603068316835681C680430013468
:103420001C6094680431FC60606091606B61F8BD61
:1034300010290120EC2901205C290120F428012019
:1034400058290120182901202DE9F04702F1804276
:10345000DDE90984266B013A06EB820607469946A8
:10346000DDF820A026F0070679B101F1FF3C01F15B
:103470000F0504F1330E1CF9011F0EF8011F09B1ED
:10348000AC45F8D1002384F84330BAF1040F1BD8BF
:10349000201DC4F82CA0FFF78FFA04F11800FFF7E5
:1034A0008BFACAF10503A3613A464B463046216BBD
:1034B00024616462FDF768FC2060B8F1000F01D060
:1034C000C8F80040BDE8F08740F29631024B034A4D
:1034D0000348FEF7F1FE00BF2CDF010054F40100A9
:1034E00000DF010080B54FF48070FDF787FB1A4DB7
:1034F0001A4F1B4E2B6843B3FDF762FCFB68DC6878
:10350000201DFFF781FA3368013B33602B68013BD4
:103510002B60FDF77DFC2046FDF772FB94F85D30D3
:1035200053B1012B14D0022BE4D040F6D9710D4BCE
:103530000D4A0E48FEF7C0FE206BFFF7BDF820468F
:10354000FFF7BAF82B68002BD6D1FDF7B5FCD1E711
:103550002046FFF7B1F8CDE72C29012030290120C2
:103560001429012040DF010044F4010000DF0100C4
:103570002DE9F047604B196801311960002900F00E
:103580009080DFF89CC1DCF800309942C0F0818067
:103590005A4C23681868002800F09A800020584E82
:1035A0000546584ADFF87CA169E0D3F80C809F6893
:1035B000D3F814E0C7F808809F68C8F80470DEF8F4
:1035C000047003F10408474504BFDF68CEF80470B7
:1035D0005D61DEF8009009F1FF39CEF80090D3F874
:1035E00028E0BEF1000F16D0D3E90779C7F808909C
:1035F000DF69C9F80470DEF8047003F118094F455B
:1036000004BF1F6ACEF804709D62DEF8009009F1D5
:10361000FF39CEF80090D6F80090D3F82CE0CE45D4
:1036200088BFC6F800E00EEB8E0E02EB8E0EDEF8C1
:1036300004E0C3F808E0DEF80890C3F80C90C9F87D
:103640000480CEF80880D3F82CE00EEB8E0E02EB4F
:103650008E08C3F8148052F82E8008F1010842F851
:103660002E80DAF800E0D4F80090D3F82C80DEF851
:103670002CE0D9F80030F04588BF012043B323681F
:10368000DB68DB68D3F804E071458ED2CCF800E04B
:1036900000E000201C4B1B68002B18BF0120BDE878
:1036A000F087164B1A681268FAB9184A1C68106835
:1036B0001860174814600268013202601A681268C4
:1036C0005AB94FF0FF33DFF858C0CCF800305AE752
:1036D0004FF0FF33CCF80030DCE71B68DFF840C068
:1036E000DB681B68CCF800304DE740F6F421094B4D
:1036F000094A0A48FEF7E0FD102901205C29012053
:103700000C290120882901200029012058290120A5
:10371000FC28012074DF010000F4010000DF01003B
:10372000F4280120EC2901202DE9F04387B0DDE9E0
:103730000F84B8F1000F26D0002C32D01F46602332
:1037400005939146059A9A4224D105460E46204695
:103750000021059B07F0DCF828460E9DC4F8308058
:1037600000950225029484F85D5004AD3B464A461C
:1037700031460195FFF768FE2046FFF77FFD04986C
:1037800007B0BDE8F08340F24321094B094A0A48DB
:10379000FEF792FD4FF41371084B064A0648FEF7F8
:1037A0008BFD4FF41171064B024A0348FEF784FD6E
:1037B000ECDF01006CF4010000DF010028E00100F3
:1037C0000CE001002DE9F043064685B09000154657
:1037D0000F469846FEF7D8FE08B304466020FEF771
:1037E000D3FE8146C0B16022002107F091F8C9F8EC
:1037F00030400D9C434601940C9C2A463946304685
:10380000CDF808900094FFF71FFE4846FFF736FDFD
:10381000012005B0BDE8F0832046FEF74DFF4FF0D4
:10382000FF3005B0BDE8F08330B5002489B007AAA9
:1038300006A905A8CDE90544FDF77EF9DDE90523D4
:103840001549CDE9013215482346079A0094FFF740
:103850006BFF28B100F03AFE012805D0013013D0EB
:103860000F4B1B6809B030BD80F310884FF0FF3557
:103870000C490D4A0D4B0D6010601C60FDF74AFBB2
:10388000074B1B6809B030BD4FF40261084B094A71
:103890000948FEF711FD00BF70E00100E5340100AA
:1038A00080F40100F42801200829012010290120BA
:1038B00078E0010024F4010000DF0100024A1368EF
:1038C00001331360704700BFF02801202DE9F04755
:1038D000644C2368002B00F0BD80FDF771FA23686B
:1038E000013B23602268002A40F0A7805E4B1B68E2
:1038F000002B00F0A2805D490B68002B00F0A8802F
:103900004FF0010C5A4E5B4BDFF88CA15A4DC86842
:10391000D0F80CE0DEF82880DEE90770B860DEF849
:103920001C700EF118094760D8F80400484504BF20
:10393000DEF82000C8F80400CEF82820D8F80000EF
:103940000138C8F80000DEF81480DEE90270B860C3
:10395000DEF808700EF104094760D8F80400484505
:1039600004BFDEF80C00C8F80400CEF81420D8F824
:1039700000000138C8F80000D6F80080DEF82C00FE
:10398000404588BF306000EB800003EB800040685A
:10399000CEF80800D0F80880CEF80C80C8F8049063
:1039A000C0F80890DEF82C0000EB800003EB8008E4
:1039B000CEF8148053F8208008F1010843F82080E5
:1039C000DAF80000DEF82CE0C06A864588BFC5F84A
:1039D00000C0086800289AD1284B1A681268002A8B
:1039E00031D01A68264BD26812681A60254F3E689B
:1039F0009EB14FF0010806E0FFF7BAFD08B1C5F827
:103A00000080013E08D02368002BF5D03B68013EC2
:103A100003F101033B60F6D13E602B686BB14FF0C0
:103A20008052194B5A60BFF34F8FBFF36F8F012441
:103A3000FDF7EEF92046BDE8F0870024FDF7E8F930
:103A40002046BDE8F0874FF0FF320D4B1A60CDE7FE
:103A5000094DCBE740F693010C4B0D4A0D48FEF79C
:103A60002BFC00BFF028012014290120442901204B
:103A70000C29012088290120002901205C2901202E
:103A8000F42801200429012000ED00E08CE0010071
:103A900014F4010000DF0100EC29012008B550B149
:103AA0000D4B196881B91A6801321A60FFF77AFC68
:103AB000FFF70CFF38B94FF08052084B5A60BFF344
:103AC0004F8FBFF36F8F08BD4FF4A461044B054ABD
:103AD0000548FEF7F1FB00BFF028012000ED00E0F3
:103AE00044E0010038F4010000DF0100014B1868D8
:103AF000704700BF10290120054B1B680BB9FFF769
:103B000037BD044A0020136801331360704700BFBB
:103B1000F0280120042901201B4B1B681BB1012246
:103B20001A4B1A60704710B5184A194C1360236875
:103B3000184903EB830292008A58980042B9E3B116
:103B4000013B03EB830251F822209800002AF6D0B3
:103B5000184401EB800C6146DCF8042008315268FF
:103B60008A42CCF8042004BFDCF80C20CCF80420F6
:103B7000D168094A1160236010BD40F63341074BFC
:103B8000074A0848FEF798FBF02801200029012089
:103B90000C29012088290120EC290120B8E001002E
:103BA000ECF3010000DF010010B558B10C46094BE1
:103BB00019681831FEF710FF2046BDE810400121BA
:103BC000FFF7F0BB40F64B41034B044A0448FEF7B5
:103BD00073FB00BFEC290120C8E00100D4F3010011
:103BE00000DF0100F8B50346F0B11046154A12682F
:103BF0000AB3154C41F00041226891615A6821686E
:103C00002768CA61256821682668946818351831C4
:103C10003C62656091600121B3621A680A441A60CF
:103C2000BDE8F840FFF7BEBB40F66541074B084AC8
:103C30000848FEF741FB40F66941074B044A054836
:103C4000FEF73AFBF0280120EC290120C8E0010032
:103C5000B4F3010000DF01008CE00100F8B5034679
:103C6000F8B108461146124C5A682568D4F800C0CD
:103C7000EA6126682568276805F1180495681836F2
:103C8000CCF820506E609460BB621A68002902F183
:103C900001021A6018BF4FF0FF30BDE8F840FFF78F
:103CA00081BB40F68141034B034A0448FEF704FB05
:103CB000EC290120C8E0010094F3010000DF0100BD
:103CC00010B5C368DB68002B59D0D3E907019A6AA5
:103CD0008160DC6903F118004C6051682B4C814213
:103CE00004BF196A5160002199621168013911609D
:103CF0002268AAB1264A5468DC61A168196248604A
:103D00001168A06001319A6211602249DA6A0B6879
:103D1000DB6A9A4231D901231F4A1846136010BD4D
:103D20005A69D3E9020181609C68181D4C60516892
:103D30001A4C814204BFD968516000215961116851
:103D4000013911602168DA6A8A42154988BF226008
:103D500002EB820201EB820252689A609468DC6096
:103D600060609060DA6A02EB820201EB82005861C7
:103D70009200885801308850C7E7002010BD40F6F7
:103D8000B141084B084A0948FEF796FAF02801208D
:103D900044290120EC290120002901200C290120BF
:103DA00088290120D4E0010078F3010000DF010040
:103DB00010B52F4B1B68002B52D0C36841F0004157
:103DC0000160002B45D0D0E901410269A16044683F
:103DD0004C6051681C1D814204BF81685160002104
:103DE00001611168013911605A69D3E902018160EA
:103DF0009868486051681F48A14204BFD968516063
:103E000000215961116801391160DA6A01688A423A
:103E1000194988BF026002EB820201EB82025268FC
:103E20009A609068D86044609460DA6A134C02EB40
:103E3000820201EB8200586192008858013088505C
:103E40002168DA6ACB6A9A4202D901220C4B1A60C5
:103E500010BD40F6F1410B4B0B4A0C48FEF72CFA13
:103E600040F6E9410A4B084A0848FEF725FA00BF28
:103E7000F02801200C29012088290120EC290120AB
:103E800000290120D4E0010054F3010000DF01000B
:103E90008CE0010010B560B10446FCF791FF084AC0
:103EA000084B12681B68C4E90023BDE81040FCF70A
:103EB000AFBF40F61551044B044A0548FEF7FCF924
:103EC000FC28012010290120E4E001003CF301005E
:103ED00000DF0100034A044B12681B68C0E900239D
:103EE000704700BFFC28012010290120F8B550B30D
:103EF0000D4679B30446FCF763FF2B68194A581C3A
:103F000011681BD0D4E90060DFF86CC0DCF80070E9
:103F1000BE4208D0884206D8002301242B60FCF75B
:103F200077FF2046F8BD0F1ABB42F5D95B1ADCF8C3
:103F30000010126803442B60C4E900120024FCF74F
:103F400067FF2046F8BD40F62C51074B074A08484A
:103F5000FEF7B2F940F62D51064B044A0448FEF72D
:103F6000ABF900BF10290120E4E0010024F30100B7
:103F700000DF0100F0E00100FC2801200122014BDC
:103F80001A60704700290120014B1868704700BF74
:103F9000EC290120054B1B6833B1054B1868B0FABA
:103FA00080F0400940007047012070470829012037
:103FB000F0280120044A116813681268DB6A8869D6
:103FC000C3F1050393617047EC29012070B578BBFC
:103FD0001B4C0E461546FCF7F3FE23689B6D23B978
:103FE0000121236883F85C10B5B9FCF711FFFCF7D9
:103FF000E7FE23689D6D1DB156B1002223689A65C6
:104000000022236883F85C20FCF702FF284670BD7D
:1040100023686A1E9A65F3E72846FFF7C3F94FF055
:104020008052084B5A60BFF34F8FBFF36F8FDCE7AE
:1040300041F29D21044B054A0548FEF73DF900BFBA
:10404000EC29012000ED00E000E101000CF301008B
:1040500000DF010070B5002867D000296CD104464C
:104060001546FCF775FFEFF31182102383F31188D7
:10407000022394F85C1084F85C30A36D012903F1ED
:104080000103A36502D082F3118870BDA36A002BDF
:1040900059D1304B1B68DBB12F4B59681868E1616F
:1040A0008E680130186004F1180026627060886024
:1040B000A3622A4BE16A1B68DB6A9942E3D90DB11E
:1040C00001232B600121264B196082F3118870BDFA
:1040D0006369D4E902018160A06848605968201DC5
:1040E000814204BFE16859600021616119680139AA
:1040F00019601C49E36A0E68B34288BF0B601A4915
:1041000003EB830301EB83035B68A3609E68E660B7
:1041100070609860E36A03EB830301EB83006061E6
:104120009B00C8580130C850C3E741F243410F4BD0
:104130000F4A1048FEF7C0F841F244410E4B0C4ABA
:104140000C48FEF7B9F841F26A410C4B084A09489D
:10415000FEF7B2F8F028012044290120EC290120C3
:10416000002901200C290120882901202CE10100CF
:10417000ECF2010000DF010014E101005CE101004C
:10418000F0B5124C83B0FCF71BFE256825B103B0D7
:10419000BDE8F040FCF73CBE0D4E0E4F3046FEF73A
:1041A000FFFB3846FEF7FCFB0B490C4B00950A2041
:1041B0001F600E600A4B0C210A4AFEF70BFD2060BF
:1041C0000028E4D00849FEF7FFFFE0E7B82A012005
:1041D000D82A0120C42A0120C02A0120BC2A01209B
:1041E000F0290120382A01209CE101002DE9F04747
:1041F000DFF884900546D9F800300F46DB68DC68AC
:1042000004F104084046FEF7FFFB94F824305A07F7
:104210000ED423F0010384F824302046236ABDE83D
:10422000F047184793421BD82046236A98473546E3
:10423000A3697A1BEE182CBF01210021B7426660EA
:104240002461EFD2AF4201D20029EDD0D9F80000AD
:104250004146FEF7C1FB2046236ABDE8F0471847F8
:10426000044B41461868FEF7B7FB2046236ABDE8B9
:10427000F0471847BC2A0120C02A01202DE9F04F41
:104280008A4D8B4E8B4C8C4FDFF83C8285B02B686F
:10429000D3F800A0BAF1000F00F0B280DB68D3F8C9
:1042A00000A0FFF70BFBFFF721FC33688146834238
:1042B00040D88245306040F2BE8000222068AAEBE0
:1042C0000901FEF7B3FFFFF701FB38B94FF0805348
:1042D000C8F80430BFF34F8FBFF36F8F0022206800
:1042E00001A9FEF7C3FD0028D1D0019B002BF5DB0F
:1042F000DDF80C90D9F814301BB109F10400FEF779
:1043000083FBFFF7F3FB33688246984224D3019B7B
:10431000C6F800A0013B082BE0D8DFE803F0252514
:104320004950682525495000DB684FF0FF31186877
:10433000FFF75CFF2B681A68002AF5D13A68C6F8C7
:1043400000902A603B60FFF7C1FAC7E7DB684FF0D7
:10435000FF311868FFF74AFF2B681A68002AF5D169
:104360003A683B602A60D2E799F82410029BD9F89A
:10437000182041F0010C981889F824C02CBF4FF088
:10438000010C4FF0000C5045C9F80400C9F810901A
:1043900046D8AAEB03039A4223D8480756D421F003
:1043A000010189F824104846D9F82030984795E74C
:1043B00099F8243023F0010389F824308EE799F826
:1043C0002420029B42F0010289F82420C9F8183009
:1043D000002B64D053445345C9F80430C9F81090F9
:1043E00023D8386809F10401FEF7F6FA76E799F860
:1043F00024309A0726D523F0010389F824306DE78D
:10440000FFF75CFAFFF772FB33688146984291D35D
:104410003B68C6F800901A68B2FA82F252094DE77A
:10442000534502D9BCF1000FB7D0286809F1040147
:10443000FEF7D2FA52E7FFF749FA49465046FFF72E
:10444000D5FE4BE74846FEF737F947E7029B134492
:104450000AE0AAEB030393421BD3D9F82030484665
:1044600098475B46D9F8182013EB020B2CBF0121AB
:104470000021DA45C9F804B0C9F81090E9D29A458C
:1044800001D20029E9D0286809F10401FEF7A4FA55
:1044900089E7386809F10401FEF79EFA83E74FF4D3
:1044A0005D71064B064A0748FDF706FFC02A01204A
:1044B000B02A0120B82A0120BC2A0120ECE1010029
:1044C00084F40100C0E1010000ED00E010B588B007
:1044D000FFF756FE114B1B68CBB1002407AA06A9B3
:1044E00005A8CDE90544FCF735FB03222346059CCE
:1044F00000920294069C0A490A48079A0194FFF721
:1045000013F9094B186010B1012008B010BD40F23A
:104510001911064B064A0748FDF7CEFEB82A0120BE
:1045200014E201007D420100B42A01201CE20100D6
:10453000A0F40100C0E101002DE9F041DFF88C801A
:10454000D8F8005025B1281E18BF0120BDE8F08121
:104550001021164A0846FEF77FFBC8F80000F8B1A4
:104560001349FEF731FE1348FEF71AFA124C114FA9
:1045700004F5607620466562FEF71EFA2146E46087
:1045800038463834FEF728FAB442F3D110220B4BE8
:10459000D8F800501A60281E18BF0120BDE8F0812D
:1045A0007421074B074A0848FDF786FE6C2E012050
:1045B000BCE20100BC2E0120EC2A0120B82E012013
:1045C00024E20100DCF401004CE20100B42E0120E1
:1045D00070B50446406A10B10A38FEF76DF8002540
:1045E000C4E90955FCF7ECFB0A48236983420DD066
:1045F0002146FEF7E5F9FCF70BFC074B2A46294656
:1046000018682B46BDE87040FEF764BBBDE87040FB
:10461000FCF7FEBBBC2E0120B42E01204128F8B5CA
:104620000AD9C31C06D8851C15F0030323D115F144
:104630000B0F2BD900261CE044254E24224B186872
:104640000028F7D0FEF7CEFC0128F3D11F4FFCF76E
:10465000B7FBFB68DE683046FEF7D6F9FCF7D8FBFF
:104660001B4B3A681968776A914288BF1A601FBB72
:104670008DB93046F8BD5A1FAA42DBD30630C51AA1
:1046800015F10B0FD6D805F10A0401E000F10C0476
:10469000002CD3DACEE72046FDF776FF706238B102
:1046A0000660736AC6E90B770A33B5627362E0E7A6
:1046B0003046FFF78DFFBDE74FF4A371054B064A67
:1046C0000648FDF7F9FD00BFB42E0120BC2E0120E5
:1046D000B82E0120C8E20100B8F401004CE201004C
:1046E000014B1868704700BFBC2E01202DE9F04F28
:1046F0004FF0000A4FF0FF3B83B04FF0FF09064632
:10470000884654464B4D0192CDF800B011E0062288
:104710003146284606F0D2F808B3B8454AD0AB79FE
:10472000994584BFA24699460134062C05F110052F
:104730001DD055F8047C002EE9D1B845EFD1BBF16E
:10474000000F71DB3C4B22014FEA0B1C03EB0414FE
:104750009E50C4E90166E66043F80C8037E0B84536
:104760002AD0A3460134062C05F11005E1D1BBF196
:10477000000F009B40DB002B2CDA2F4A4FEA0B1A6C
:1047800042F80A80002E40D04FEA0B1A4FF4CB714A
:1047900030680AF10403D050B088134498800AF1BD
:1047A00008039244254AD152019BCAF80C3003B049
:1047B000BDE8F08F0094B7E74FF4CB711F4B240195
:1047C00004F1080299521C44019BC4F80A3003B05A
:1047D000BDE8F08F0023184A009802EB001A01018F
:1047E0005350CAE90133CAF80C304FEA0B1342F8B0
:1047F0000380002EC8D1EAE7002B0F4A0CDA4FEAFB
:104800000A1A42F80A80002EC0D105220B4B0AF189
:10481000080A23F80A20DAE7009B4FEA031A42F855
:104820000A80002EB2D1D2E7034B240143F8048062
:10483000CDE700BFE42E0120E02E0120E22E012072
:10484000D8B1F8B507460E4600250C4C04E00135FA
:10485000062D04F110040FD054F8043CB342F6D1F5
:1048600006223946204606F029F80028EFD1962284
:10487000034B03EB05139A72F8BD7047E42E012039
:10488000E02E012070B50C46054602212046164652
:1048900002F0A4FB30B1324621462846BDE8704004
:1048A000FFF724BF70BD00BF2DE9F843002970D089
:1048B000054600287BD01646002A71D04FF000092B
:1048C000C2F80090D0F800800F464046494602F0FA
:1048D00009FB404602F0E0F8044650BB08F07F4375
:1048E000B3F17F4F16D00421286802F077FB00282F
:1048F00037D02A683060CAB1304B2101585803EBD9
:10490000041C824235D00134062CF6D100202A60E6
:10491000BDE8F8832A4B40461A689B8804213A6018
:10492000BB8002F05BFBC8B1306017E00220BDE83D
:10493000F8833946404602F0E5F9484602F0A0FA0D
:10494000014630B9F2E7002002F0AAFA0146002839
:10495000ECD091F840301B07F5D431600120BDE860
:10496000F883402002F004FC30600028DED082682A
:10497000C1E79CF80B0008B90220C8E70431585879
:104980000B4438609B880120BB80DCF80C3033601E
:10499000BDE740F2C9310B4B0B4A0C48FDF78CFCCC
:1049A00040F2CB310A4B084A0848FDF785FC40F23B
:1049B000CA31084B044A0548FDF77EFCE02E012071
:1049C00048F60100F4E2010018F5010010E30100CF
:1049D0007CE3010060E301000022024B03201A6027
:1049E00001F006B9DC2E0120F8B500283BD0836A1F
:1049F0008446292B45D9036B002B3BD0456A244EB6
:104A0000AE4606F1200734460EF1100E0FCCBC4224
:104A100006F110064EF8100C4EF80C1C4EF8082C3F
:104A20004EF8043CEFD1B3883068AEF80430CEF8CD
:104A30000000DCF830309A6BC5F806202A229B8FE4
:104A40006B81DCF83030996BC5F816109B8F6B8347
:104A5000DCF830301B68EB61DCF81430C5F8263028
:104A6000CCF82820F8BD40F2B1510A4B0A4A0B4855
:104A7000FDF722FC40F2B351094B074A0748FDF706
:104A80001BFC40F2B251074B034A0448FDF714FCEB
:104A90002CF5010098E30100FCF4010010E3010093
:104AA000F0E30100B8E3010070B505460E4682B0A0
:104AB0002A200021FFF7B2FD08B346610563D5F84F
:104AC000A4300446C362FFF78FFF01F0ABFD48B18D
:104AD000D5F8A40098B101222146C36802B0BDE810
:104AE0007040184702234FF0FF31684601948DF85B
:104AF000003001F0A5F810B92046FFF769FD02B0BB
:104B000070BD00BF90F84020120701D4036803B9BC
:104B10007047FFF7C9BF00BF2DE9F041446A056B3C
:104B2000E38986B0B3F5807F03D0002006B0BDE8EE
:104B3000F081238A082BF8D1A37C062BF5D1E37CE6
:104B4000042BF2D1744FE6693B680096D4F82680B6
:104B5000002B4AD1A37D13F00103E6D132BA02F152
:104B60000142B2F1807FE0D3002DDED02A68964268
:104B700044D095F84010C906D7D5A18AB1F5807FF9
:104B800052D0B1F5007FD0D1D4F826108A4200F07F
:104B9000B580624A1901505802EB0311864203F1B5
:104BA000010300F0A780062BF4D15D4C206800289B
:104BB000BBD001F053FB1428B7D123685A6AD2F84E
:104BC0001A209642B1D10122002104A805938DF844
:104BD000102001F035F8012802D02068FFF7F8FC1A
:104BE0000020206001F0BEFC9FE74E494E48FFF7D1
:104BF0007DF9012804BF00233B60ABE73B68002B35
:104C000093D10123314628463B60FFF77BFFFEF737
:104C10006DFF0246454B44481A60FFF73BF94FF4DD
:104C20007A72404B1A6080E7424539D046457FF49E
:104C30007CAF6B6872401A427FF477AF3C4B04F153
:104C4000200693E8030006220290ADF80C103046CF
:104C5000384905F033FE38B10622304602A905F086
:104C60002DFE00287FF461AF16340622214605F19F
:104C7000380005F023FE00283FF457AF684601AA2C
:104C800004A9FFF711FE01287FF44FAF019BAB424F
:104C90007FF44BAF2A4620460099FFF7F3FD44E727
:104CA00005F1380804F1160706223946404605F09A
:104CB00005FE00283FF439AF0221304602F08EF99C
:104CC00020B12A4631463846FFF710FD0023022066
:104CD0002375D4F8163060752362BB88C4F826604B
:104CE000A384AB6BC4F81630B8F80430BB802B68D3
:104CF000E3611BE7CB7A002B3FF457AF022130462C
:104D000002F06CF900283FF450AF2A46314604F116
:104D10001600FFF7EBFC48E7D82E0120E02E01201B
:104D2000A482012040600020D02E0120DC2E012032
:104D300054F5010048F6010010B50C21044602F0BC
:104D40004DF928B190F84020120701D4036803B947
:104D500010BD2146BDE81040FFF7A6BE70B5244C3B
:104D600004F1600504E0032B0BD91034AC4219D0D8
:104D7000A37A002BF9D0013BE27ADBB2A372002ABE
:104D8000F1D126680C21304602F028F918B190F8CC
:104D90004020110721D5A37A002BE6D123601034DF
:104DA000AC42E5D1FEF7A2FE124E054633681BB1B8
:104DB000C31AB3F5FA6F0FD90F4B1C685CB194F8A6
:104DC0004030DA0603D5216809B11B070CD5D4F8A9
:104DD000A840002CF3D1356070BD0368002BDAD0F9
:104DE0003146FFF761FED6E72046FFF75DFEEEE7AE
:104DF000E02E0120DC2E01206883012038B5044616
:104E000001F02CFA142801D0002038BD206B636A11
:104E10000568D3F81A10426881EA05031340F3D1FC
:104E20000D4A1C01145902EB031CA14203F10103BA
:104E300007D0062BF5D190F840301B0706D501208E
:104E400038BD9CF80B30002BF5D0DDE7002DF6D0F7
:104E5000FFF72AFEF3E700BFE02E012088B110B46F
:104E600000240A4B03F16001DA68824204BFC3E9FF
:104E70000044C3E9024410338B42F5D15DF8044B82
:104E8000704701466022014805F042BDE02E012036
:104E90002DE9F04F00240E468DB0CDE900440123EA
:104EA00081462246D6F8800004A9CDE90544CDE923
:104EB0000744CDE909440B9402F09CFA051E04DD79
:104EC000EF2D049F05DC4FB93C4620460DB0BDE8F0
:104ED000F08FD7F8EC20994B9A4207D0002438463F
:104EE00000F070FE20460DB0BDE8F08F3B78022B3D
:104EF000F4D17B78012BF1D1BA78062AEED13B6947
:104F000003F07F41B1F17F4FE8D0DB435B06E5D092
:104F1000F36D79681BBA9942E0D106F1380107F1C7
:104F20001C0005F0CBFC0028D8D14FF0000B5A46EE
:104F3000DC46F03D07F1F00A0795CDF82CA060465D
:104F400002F1EF033B44954243D913F8014F511C42
:104F5000FF2C1CD024B38D4219D91AF80180931C60
:104F600041448D4207D9B8F1030F44D95AF80310D0
:104F70009D42099117D8CDF8208006938DF81440F2
:104F8000BBF1010FAAD93B6901243366A7E7BCF145
:104F9000000F01D0CDF820800028EFD00692EDE779
:104FA0000A460120CFE7332C1BD03AD8032C00F05F
:104FB0009980062C67D0012C2AD1B8F1040F00F09B
:104FC0009480B8F1000FD6D04FF0010C08EB03022B
:104FD000B5E7BCF1000F01D0CDF820800028DDD16D
:104FE000CEE7B8F1040FEFD10ABA6421520801FBF1
:104FF00002F2F266E8E700229D420992BBD9332C07
:1050000006D000F28A80032C00F08C80062CD2D1CE
:10501000B8F1000FD8D1CDF8208006938DF8144058
:10502000AEE7352C1AD0362CCED1B8F1040F09D00A
:10503000B8F1000FC8D13622CDF8208006938DF844
:1050400014209DE7B9F1020F099A60D0B16E914228
:10505000BAD10BF1010BCDF828B0B5E71AF803204F
:105060005FFA89F18A4243D006933523062A8DF8E8
:10507000143005D1B9F1050F04BF002386F87C3048
:10508000002308937CE7B8F10B0F88BF02204FF094
:10509000000107F1F20C944498BF4FEA9800F232F5
:1050A0000CEB800C3A441068043200F1FF3E1EF114
:1050B000030F04D806EB810ECEF80C0001316245D7
:1050C000F1D1012909900AD8C1F10202033106EB9E
:1050D000810092000021039305F01AFC039B00223B
:1050E000327671E7099AB2606EE7099A72606BE7EF
:1050F0000BF1010BCDF828B0B8F1000F7FF464AFCD
:105100003522CDF8208006938DF8142038E70BF176
:10511000010BB266CDF828B056E7352C9ED0362C60
:1051200086D075E7B8F1000F7FF44EAF0322CDF8BB
:10513000208006938DF8142022E700BF638253631A
:105140002DE9F04F83B0174682468B461E46146801
:10515000FBF728FC8146002871D005F04FFC804603
:1051600004F58E7000214044FFF758FA05460028E8
:1051700061D04023446AF02204F12A05002104F89A
:10518000063C284605F0C4FB40F201136385062364
:1051900063226FF07D00532184F82C30F36D84F886
:1051A00016211BBA84F81921C4F82E3084F817018F
:1051B00084F81811B36F00222BB16FF07F0384F8CD
:1051C000352084F83430B36B5946C4F84630B38F79
:1051D00004F58D70A4F84A303A6805F002FC0C2200
:1051E0003B6806F1380BEF33EA542B4483F8018017
:1051F000B9F1000F06D0981C49464246019305F0CC
:10520000F0FB019BFF2243449A7002224FF0FF30D3
:105210004FF486413B68134443443B60B36BC4F88E
:105220002031BBF80430A4F82431CAF80800AAF8E9
:1052300002108AF80120284603B0BDE8F08F8046AE
:105240008EE700BFF0B51923002405468BB0CDE9E9
:1052500003341A492B4603AA04A8CDE90544CDE935
:1052600007440994FFF76CFF0646D5F8800002F06A
:10527000B5FD012803D0002420460BB0F0BD002E60
:10528000F9D0044618272B6E039AC6F8FE30AB6E91
:105290003146C6F80431D5F88030F0321D6404ABD5
:1052A0000093D5F880002346019702F075F9002895
:1052B000E2D1304600F086FCDDE700BF5CF501007E
:1052C000F0B51823002405468BB0CDE903342349FB
:1052D0002B4603AA04A8CDE90544CDE90744099467
:1052E000FFF72EFF0646D5F8800002F077FD012873
:1052F00003D0002420460BB0F0BD002EF9D06B6E19
:105300000446039FFBB9122F20D9A7F1120206F51C
:10531000817106F1FC0005F0E1FA063F1823D5F88B
:10532000801007F1F0020D6404A90091D5F8800007
:1053300031460193012302F02FF90028DAD13046DB
:1053400000F040FCD5E7C6F8FE30E7E740F24961DF
:10535000034B044A0448FCF7AFFF00BF8CF5010083
:105360001CE4010078F5010044E4010000232DE96C
:10537000F041304D8AB02E680446039366B1D0F8F0
:1053800080309E4205D02C4AC0F8806013680133FB
:1053900013600AB0BDE8F08102211122084601F035
:1053A00063FF286002F01AFD01283BD1286802F053
:1053B00015FD0128074605D02E60C4F880600AB0AC
:1053C000BDE8F0814FF0040832463146286803AB4F
:1053D000CDF8008002F0A8FACDF800803A463146B8
:1053E00003AB286802F0A0FA144B1822CDE904366A
:1053F0002868334604A9CDE90666CDE9086602F0BF
:1054000089F90D4A2B681760C4F880300028C0D095
:10541000002BBED01846166002F020FA2E60C4F8A9
:105420008060B6E740F27131054B064A0648FCF74A
:1054300043FF00BF442F0120402F012018020044E9
:1054400098E40100A4F5010044E4010070B584B0C3
:10545000002A00F0C5811446B8B10022B04B84F890
:105460007C20197801B11A7004F15C00FBF7EEFEA4
:10547000002840F034810122AA4B84F87C2019785E
:10548000914208D01A7004B070BD92F87C2094F854
:105490007D309A4201D004B070BDA14890F800C0A0
:1054A000944518BF0270062B00F2A58101A050F8A8
:1054B00023F000BF69540100E9550100AF55010018
:1054C000595501003D550100E9540100D154010036
:1054D0000021204601F052F8924B94F87C20197874
:1054E0009142D8D01A70CEE7204600F09FFE0028E7
:1054F00000F0D6802046FFF739FFD4F880301BB388
:10550000002303A80393FBF7A1FE08B1039BE36507
:10551000FEF7ECFA4FF4FA7302462046C4E91C2366
:10552000FFF790FE0346012B14BF04230323192128
:10553000204684F87C3000F0CDFFCDE72046FFF711
:1055400081FE012800F0DA80764B94F87C201978EF
:105550009142A0D01A7096E70191002900F0A68030
:1055600021460520FFF794FC0128EDD10521226E8C
:105570006368204662EA03032260636184F87C105A
:1055800000F06EFAD4F8800020B1674D2B68984285
:1055900000F01A81E36E002B40F00E81634BE3664E
:1055A000FFF71AFA2046E16E00F094FF94E7002915
:1055B00060D021460220FFF76BFC0128C4D1216E88
:1055C000FBF71CF928BB2046FFF73CFE012800F042
:1055D00095800421534B84F87C101A788A423FF45A
:1055E0005AAF04221A7056E70020E169FBF706F96A
:1055F00078B9D4F88030002B4BD02060FEF776FAD3
:10560000034620462367FFF75BFE01289CD1022258
:1056100032E7444B0128197800F08C8094F87C2004
:105620008A4200D01A70FBF7CBFBE3692360FBF7DB
:10563000EFFB06230021204684F87C3000F09EFF1B
:10564000204600F00DFAD4F8800000283FF423AF84
:10565000354D2B6898427FF41EAF354A1668002EF0
:105660007FF719AF013E1660002E78D00023C4F8F2
:10567000803010E70191FEF739FAD4E91C23801A33
:1056800098427FF661AF42F6E0625B009342636747
:1056900069D9244B94F87C2019789142C2D1C2E791
:1056A0004FF4FA71204600F015FF15E7FEF71EFAD9
:1056B000D4E91C23801A98427FF646AF42F6E06296
:1056C0005B009342019963676BD9164B84F87C1099
:1056D0001A78002A3FF4DFAE00221A70DBE60023BE
:1056E0004FF4FA722046A3672366A3666267FFF74A
:1056F0003DFE1921204600F0EDFEBCE6FEF7F6F96E
:1057000003214FF4FA75074BC4E91C051A7884F895
:105710007C108A423FF4BFAE03221A70B3E600BF8A
:105720004560002044600020442F012000AC0701A8
:10573000402F0120E26994F87C002260226AA56A69
:105740006260626A8842A260E26AE5602261226B5E
:105750006261626BA2613FF466AF187063E702F0AA
:105760007DF82E6082E704F15C00FBF76FFD0028F6
:105770003FF4EAAEFEF7BAF9A36F0246B3FA83F339
:105780005B09A36720462267FFF79AFD01281D4B9E
:105790003FF4DBAE01991A7884F87C10002A9BD183
:1057A00079E6FEF7A3F9034620462367FFF74AFD93
:1057B00001287FF40EAFC7E641F26F7293429CBF9F
:1057C00041F27073E366EBE60F4B1E68002E7FF725
:1057D000E1AE013E1E6056B10023C4F88030D9E628
:1057E0004FF42871094B0A4A0A48FCF765FD02F09C
:1057F00035F82E60F0E7034B197891423FF44BAE39
:105800001A7040E644600020402F0120D0E40100DF
:10581000B8F5010044E40100034B1B68181AB0FA04
:1058200080F04009704700BF442F01202DE9F0436C
:1058300085B000296BD091F840300D4613F0080375
:105840006BD10746002854D081F87C30D5F8800011
:10585000002854D000244FF00109DFF8E0800394C1
:1058600011E0D5F8800001230022CDE9004403A90E
:1058700001F0C0FD002803DD039808B100F0A2F993
:10588000D5F8800078B305230022CDE9004403A9B0
:1058900001F0B0FDEF2826DD039BD3F8EC20424554
:1058A000DFD11A78022ADCD11F4A1668002ED8D020
:1058B0005A6803E0D6F8A860002ED2D0F36D1BBA68
:1058C0009A42F7D196F87C30052BCAD00020324698
:1058D0000121FFF7BBFDD5F88000B54208BF4FF0AE
:1058E00000090028CFD1B9F1000F08D105B0BDE8FB
:1058F000F08391F87D2091F87C309A42A6D02A4618
:105900000021384605B0BDE8F043FFF79FBDBE213A
:10591000064B074A0748FCF7CFFCBF21064B044A59
:105920000448FCF7C9FC00BF68830120D0E40100F3
:10593000D0F5010044E40100ECE40100638253630C
:1059400070B50446002100F019FED4F8800018B1AB
:10595000094D2B68984200D070BD084A1668002E89
:10596000FADD013E16601EB10023C4F8803070BD20
:1059700001F074FF2E60F7E7442F0120402F012033
:105980004FF48E7208B50021034804F0C1FF0022D5
:10599000024B1A6008BD00BF4C2F0120482F012088
:1059A00070B5836A292B48D9446A054694F8226069
:1059B0003EB3082E01D0002070BD40230026D4F84D
:1059C0001A20A375D4F81E3084F82260C4F81A3067
:1059D000C4F81E20267566752676667600F03EFCB5
:1059E00004F10E010246304600F0D6FE03465BBAD3
:1059F000DB43238301222046A96A00F063FF0220D3
:105A000070BD238A59BA9BB2B3F5E05F89B20ED05C
:105A100004F12A021D3904F1290312FA81F101E08F
:105A20008B4204D013F8012F782AF9D00226304691
:105A3000E18CFAF7D7FE0020BEE75921024B034A5A
:105A40000348FCF739FC00BF08E50100E0F5010060
:105A500040E50100014B1868704700BF94820120A7
:105A6000034693F840204FF47A7042F0100283F816
:105A7000402000F019BD00BF30B50025037F83B082
:105A800023F00103037704468DF80050019000F0E5
:105A9000C9FD094B2A46186869462B46FDF71AF9D5
:105AA000012803D001231D46044A1360237F65F3B8
:105AB0004103237703B030BDA082012098820120EA
:105AC000F0B585B001F0D2F9002831D0002500F002
:105AD00037FE082115201A4B1A4A0095FDF77AF86F
